:020000040800F2
:1000000010490020A5010008D92F00087F2A000808
:10001000D52F0008B90A0008753800080000000054
:100020000000000000000000000000000532000891
:100030001D0B000800000000DD2F0008073200083B
:10004000BF010008BF010008BF010008BF01000890
:10005000BF010008BF010008BF0100081F0B000816
:10006000BF010008BF010008BF010008BF01000870
:10007000BF010008BF010008BF010008BF01000860
:10008000BF010008BF010008BF010008BF01000850
:10009000BF010008BF010008BF010008BF01000840
:1000A000BF010008BF010008BF010008BF01000830
:1000B000BF0100080000000000000000BF010008B0
:1000C000BF0100080000000000000000BF010008A0
:1000D00000000000BF0100086538000800000000B3
:1000E000BF010008BF010008000000000000000080
:1000F0000000000000000000000000000000000000
:10010000000000000000000000000000BF01000827
:100110000000000000000000BF010008BF0100084F
:10012000BF010008BF010008BF010008BF010008AF
:10013000BF010008000000000000000000000000F7
:10014000BF010008BF010008BF010008BF0100088F
:10015000BF010008BF010008BF010008BF0100087F
:10016000BF010008BF010008BF0100080000000037
:10017000BF010008BF0100080000000000000000EF
:10018000BF010008BF010008BF010008DFF810D060
:1001900000F0D4FB00480047096F0008AFF300806F
:1001A000104900200648804706480047FEE7FEE762
:1001B000FEE7FEE7FEE7FEE7FEE7FEE7FEE7FEE717
:1001C000893200088D0100082DE9F05F0546002006
:1001D00092469B4688460646814640241BE02846B8
:1001E00041464746224600F08AFA53465A46C01A0C
:1001F000914110D311461846224600F071FA2D1A8B
:1002000067EB01084F4622460120002100F068FA02
:1002100017EB00094E41201EA4F10104DFDC484623
:1002200031462A46434600F000B830BCBDE8C09FC6
:1002300010B5431A934209D28318881803E010F8C6
:10024000011D03F8011D521EF9D210BD40EA010341
:100250009B0703D009E008C9121F08C0042AFAD27C
:1002600003E011F8013B00F8013B521EF9D210BD2A
:10027000D2B201E000F8012B491EFBD270470022E8
:10028000F6E710B513460A4604461946FFF7F0FF95
:10029000204610BD30B504460020034600E05B1C3C
:1002A000934203D2E05CCD5C401BF8D030BD2DE919
:1002B000FE4F804681EA0300C00F0C46009021F0FB
:1002C000004123F00045B8EB0200A94105D24046A9
:1002D000214690461C460B46024623F00040104340
:1002E00047D0270DC7F30A00C3F30A510290401A02
:1002F000019040286BDAC3F3130040F4801B009890
:10030000924620B10023D2EB030A63EB0B0B01985A
:100310005946C0F14002504600F0E2F906460D464B
:1003200050465946019A00F0FAF910EB0800614175
:10033000002487EA115284EAE7731A4340D0009AF6
:1003400062B3019A012A4FEA075215DC001B61EBE8
:1003500002014FF0004202EA0752CDE90042001CC0
:1003600041F5801132462B4600F031FA03B000F01F
:1003700045B840462146F9E7001B61EB0201001C2D
:1003800041F5801300185B412018A2F5001747EBD8
:10039000030140EAD570B6196D4111E06D084FEACE
:1003A000360645EAC0754FEA0752001B61EB0201B1
:1003B000001C41F5801149084FEA300000195141F5
:1003C00032462B4603B000F01CB800F0F1B900989B
:1003D000012240000023D0EB020263EBE07300989F
:1003E00021464FEAE074B8EB000061EB0401E9E755
:1003F00083F000435BE781F0004158E730BCBDE883
:10040000C08F30BCBDE8C04FFFF7DFBF2DE9FE4F06
:1004100081EA030404F0004421F0004100944FF00D
:10042000000B23F0004350EA01045ED052EA0304BB
:100430005BD0C3F30A54C1F30A552C44A4F2F3343D
:100440000194A0FB0254C1F3130141F48011C3F3E2
:10045000130343F4801301FB024400FB034E840AA0
:10046000970A44EA815447EA8357A4FB0768029538
:100470008D0A05FB07854FEA932C04FB0C542705D6
:10048000029D4FEA065847EA1637B5EB08056EEBB2
:10049000070C870E920E47EA811742EA8312A7FBE8
:1004A0000201B6EB0B0164EB00042B0D43EA0C33A5
:1004B0005E1844EB1C50DA465146E7FB0201C5F3D7
:1004C00013044FEA0B3343EA14534FEA0432019CFE
:1004D00043EA0603A4F10C040294009CCDE900B4A5
:1004E00000F075F903B000F003B800200146F9E709
:1004F00030BCBDE8C08F2DE9F04D81EA030404F063
:10050000004B21F0004514464FF0000A23F0004153
:1005100050EA050220D054EA01021DD0C5F30A5763
:100520000246C5F31303C1F31300C1F30A5640F4A6
:10053000801543F48013A7EB0608101BD64608F27B
:10054000FD3873EB050002D308F1010801E09218B1
:100550005B41B8F1000F03DA00200146BDE8F08DE1
:1005600000204FF48011064684460EE0171B73EB03
:10057000050705D3121B63EB050306434CEA010C88
:1005800049084FEA300092185B4150EA0107EDD16B
:1005900052EA030012D082EA040083EA050108430C
:1005A00005D0101BAB4106D20122002306E0002239
:1005B0004FF0004302E06FF0010253101AEB060007
:1005C0004CEB085110EB0A0041EB0B01BDE8F04D7C
:1005D00000F0EEB80EB5C10F80EAE0700844CA071B
:1005E000002140F233438DE80E000A460B4600F02E
:1005F000EEF803B000BD00F0004230F000400AD039
:10060000C10D01F56071C0F3160042EA0151C20844
:1006100040071143704700200146704730B5041E63
:1006200071F1000404DB4FF00044404264EB01012F
:10063000141E73F1000405DB1C464FF000435242C8
:1006400063EB04038B4208BF824230BD30B5041E09
:1006500071F1000404DB4FF00044404264EB0101FF
:10066000141E73F1000405DB1C464FF00043524298
:1006700063EB0403994208BF904230BD01F0004390
:1006800030B421F0004150EA010206D00A0DA2F573
:100690006072C1F31301002A02DC30BC00207047F5
:1006A000440F44EAC104C100E01830BC00EBC25062
:1006B00000F047B830B50B46014600202022012447
:1006C00009E021FA02F59D4205D303FA02F5491B20
:1006D00004FA02F52844151EA2F10102F1DC30BD36
:1006E000202A04DB203A00FA02F1002070479140F2
:1006F000C2F1200320FA03F3194390407047202AE7
:1007000004DB203A21FA02F00021704721FA02F3BB
:10071000D040C2F120029140084319467047202A78
:1007200006DBCB17203A41FA02F043EAE07306E019
:1007300041FA02F3D040C2F1200291400843194629
:1007400070470029A8BF7047401C490008BF20F02F
:100750000100704710B4B0FA80FC00FA0CF050EAC7
:10076000010404BF10BC704749B1CCF1200421FA48
:1007700004F411FA0CF118BF012121430843A3EB43
:100780000C01CB1D4FEA00614FEA102042BF002050
:1007900010BC704700EBC35010440029A4BF10BC2C
:1007A0007047401C490008BF20F0010010BC704792
:1007B00010B5141E73F1000408DA401C41F1000169
:1007C00092185B411A4301D120F0010010BD2DE9C0
:1007D000F04D92469B4611B1B1FA81F202E0B0FAB7
:1007E00080F220329046FFF77BFF04460F4640EA36
:1007F0000A0041EA0B0153465A46084313D01146FA
:1008000053EA010019D0C8F140025046FFF777FFC4
:1008100005460E46504659464246FFF761FF0843DB
:1008200005D0012004E020463946BDE8F08D0020C7
:10083000054346EAE0762C4337430A986305E40A09
:10084000A0EB08000022FD0A44EA47540A3002D512
:1008500000200146E9E7010510196941DDE9084575
:1008600000196941BDE8F04DA2E770B521F00043E1
:1008700003430CD0C1F30A550024D5EB040564EB07
:100880000403D617AD1AB34102DB0020014670BD48
:10089000201841EB025170BD2DE9F04D00231A469E
:1008A0001B1A8A4103DB00200146BDE8F08DC1F32D
:1008B0000A52C1F3130141F480154FF0000BD10728
:1008C00002D100186D41521E0027044640F2FF116C
:1008D000384601EB620A3E468046024600204FF44D
:1008E0008011FFF70CFFC2197141BB1846EB0100E4
:1008F000B4EB030C75EB000C04D3E41A65EB0005B4
:1009000017460E46241908F101006D41804634282F
:10091000E3DDF91946EB0600091BA84103D24FF0AD
:10092000FF32134601E0002213461BEB070046EBA3
:100930000A51BDE8F04DFFF73BBF0000064C074DE4
:1009400006E0E06840F0010394E80700984710349F
:10095000AC42F6D3FFF71EFCD0C30308F0C3030874
:1009600070B58C1810F8015B15F0070301D110F871
:10097000013B2A1106D110F8012B03E010F8016B9E
:1009800001F8016B5B1EF9D12B0705D40023521E21
:100990000DD401F8013BFAE710F8013BCB1A921C89
:1009A00003E013F8015B01F8015B521EF9D5A14287
:1009B000D8D3002070BD00001CB51148006800901D
:1009C000002269460F4805F0A7F801900198C0B2CF
:1009D00038B10198020AC1B20BA002F04DFF00F03D
:1009E000A3F800210748006805F016F911490860CE
:1009F00000210448006805F01FF90F4908601CBD7C
:100A000094BD00088000002061695F6E6574776F97
:100A1000726B5F637265617465206572726F7220BC
:100A20002D20747970653D256420636F64653D25D4
:100A3000640D0A008C00002090000020F8B50446E8
:100A40000D460F48006844600E48006845600D4838
:100A500002680B4801680C48006805F0FDF806467E
:100A6000012E0CD00848006805F0B0F800900098FE
:100A7000020AC1B205A002F0FFFE00F055F8F8BD71
:100A80008C0000209000002080000020414920615F
:100A9000695F6E6574776F726B5F72756E206572D9
:100AA000726F72202D20747970653D256420636F0C
:100AB00064653D25640D0A0000BFFEE710B504F033
:100AC00090F911490968114BC1F30221104A012420
:100AD00004290BD00F490C600C68002CFCD10D4987
:100AE00008390B60096891420AD0FEE70A498C6018
:100AF0008C68002CFCD10B600968914200D0FEE7A5
:100B000004F0E5F910BD0000002004E0C2A507F4E0
:100B1000CDB5E8B5084C025800300240704710B51A
:100B2000022000F00FF910BD72B600BFFEE770B5ED
:100B300003460C4600201F2100BF0D1EA1F101013C
:100B400006D001F01F060125B5402540002DF4D048
:100B50008AB1082A0BD0102A05D0182A0CD10729EF
:100B600000D301200AE0082900D3012006E0102963
:100B700000D3012002E001E0012000BF00BF40B926
:100B80001D686C611D68AD6825F0180515431E6869
:100B9000B56070BD10B504460CB9012010BD607F72
:100BA00020B900202077204600F036F80220607738
:100BB000207948B91748216848612068806820F08A
:100BC00018002168886007E02046D4E90212FFF788
:100BD000AEFF08B10120E1E7607920B94FF0FF30A6
:100BE0002168086102E02168206908612068806846
:100BF00020F060006169084321688860206880688F
:100C000020F08000A1690843216888600120607796
:100C10000020C3E7B71DC10408B5094A0168914225
:100C20000DD100BF0749896C41F48051054A916498
:100C30001146896C01F48051009100BF00BF08BDCE
:100C400000300240001002400146002291F82500C9
:100C5000022808D00420C86300BF002081F82400C7
:100C600000BF012070470868006820F00E000B6884
:100C700018600868006820F001000B68186091F89F
:100C8000440000F01C03012098400B6C58600120C8
:100C900081F8250000BF002081F8240000BF104625
:100CA000E0E770B50446002594F82500022803D03B
:100CB0000420E063012520E02068006820F00E0099
:100CC000216808602068006820F001002168086041
:100CD00094F8440000F01C0101208840216C486019
:100CE000012084F8250000BF002084F8240000BF04
:100CF000A06B10B12046A16B8847284670BD00004C
:100D000070B5044600F0FEF806462546681C10B192
:100D100004480078054400BF00F0F4F8801BA842A6
:100D2000FAD370BDBC000020022804D10349096831
:100D3000491C024A116002490860704740000020C7
:100D40001404014010B5044604480068204020B156
:100D5000024804602046FFF7E7FF10BD140401407D
:100D600078B503460A460021BBE001268E4015688F
:100D700005EA0604002C73D0157905F00305012D52
:100D800004D0157905F00305022D13D198684E00A3
:100D90000325B540A8434E00D568B5402843986068
:100DA000586801258D40A8431579C5F300158D407D
:100DB00028435860157905F00305032D09D0D8683C
:100DC0004E000325B540A8434E009568B540284322
:100DD000D860157905F00305022D13D1CE0803F173
:100DE000200555F826004D07EE0E0F25B540A84307
:100DF0004E07F60E1569B5402843CE0803F12005CD
:100E000045F8260018684E000325B540A84315791B
:100E100005F003054E00B54028431860556805F4F9
:100E20004035002D5CD000BF314D2D6E45F00105E1
:100E30002F4E356635462D6E05F00105009500BF35
:100E400000BF4FEAB6358E0855F826008D072E0FE5
:100E50000F25B540A843B3F1904F02D100250BE018
:100E60003EE0244DAB4201D1012505E0224DAB42CD
:100E700001D1022500E007258E07360FB540284333
:100E80001E4D8E0845F826001D4D2868A043556864
:100E900005F4801505B12043194D28602D1D2868E3
:100EA000A043556805F4001505B12043144D2D1DD0
:100EB0002860134D2D1F2868A043556805F40035A0
:100EC00005B120430E4D2D1F28602D1F2868A0431B
:100ED000556805F4803505B12043094D083D28606B
:100EE000491C1568CD40002D7FF43FAF78BD000050
:100EF00000100240000400480008004808000140BB
:100F0000080401400148006870470000B400002058
:100F1000024692F8410020282DD100BF92F84000EF
:100F2000012801D102207047012082F8400000BF53
:100F3000242082F841001068006820F00100136846
:100F400018601068006820F48050136818601068FA
:100F500000680843136818601068006840F00100DA
:100F600013681860202082F8410000BF002082F83A
:100F7000400000BFD7E70220D5E710B502460B4678
:100F800092F8410020282AD100BF92F840000128A1
:100F900001D1022010BD012082F8400000BF2420B2
:100FA00082F841001068006820F001001468206099
:100FB0001068016821F4706141EA03211068016042
:100FC0001068006840F0010014682060202082F85A
:100FD000410000BF002082F8400000BFDAE7022095
:100FE000D8E7000010B504460CB9012010BD94F8F4
:100FF000410028B9002084F84000204600F0F8F9AC
:10100000242084F841002068006820F00100216855
:101010000860606820F0706021680861206880685E
:1010200020F4004021688860E068012805D1A068AC
:1010300040F400402168886004E0A06840F4044067
:1010400021688860E068022802D180022168486037
:101050002068406813490843216848602068C068D8
:1010600020F400402168C860D4E904010843A16964
:1010700040EA01202168C860D4E9070108432168DB
:1010800008602068006840F00100216808600020C6
:101090006064202084F841000020206384F842002E
:1010A00000BFA3E7008000022DE9FC5F04468946EB
:1010B00092469B46DDE90C780E9E94F8410020286C
:1010C0007ED117B1B8F1000F05D14FF40070606404
:1010D000012000F0B9B800BF94F84000012801D108
:1010E0000220F6E7012084F8400000BFFFF70AFF66
:1010F000054619230122D1032046009501F016FE72
:1011000008B10120E5E7222084F84100402084F85E
:101110004200002060646762A4F82A8060635B4636
:10112000524649462046CDE9006501F067FD30B1E1
:1011300000BF002084F8400000BF0120C9E7608D97
:10114000FF280CD9FF2020853D48009094F82820E6
:101150004FF080734946204601F0CCFD0BE0608DD6
:1011600020853748009094F828204FF000734946B6
:10117000204601F0BFFD00BF334600220421204677
:10118000009501F0D3FD08B10120A2E72068406A74
:10119000616A0870606A401C6062208D401E208574
:1011A000608D401E6085608D48B3208D38BB33460E
:1011B000002280212046009501F0B8FD18B100E022
:1011C0003CE0012085E7608DFF280CD9FF202085B9
:1011D0000020009094F828204FF080734946204664
:1011E00001F088FD0BE0608D20850020009094F8D0
:1011F00028204FF000734946204601F07BFD608DAA
:101200000028B9D12A463146204601F0BEFD08B17A
:1012100001205EE720202168C861206840680949F4
:10122000084021684860202084F84100002084F8AC
:10123000420000BF84F8400000BF4AE7022048E7B0
:101240000024008000E800FE3CBCBDE8C09F000018
:101250002DE9FC5F0446894692469B46DDE90C7801
:101260000E9E94F8410020287DD117B1B8F1000FEF
:1012700005D14FF400706064012000F0B5B800BFE4
:1012800094F84000012801D10220F6E7012084F8FB
:10129000400000BFFFF736FE054619230122D103A7
:1012A0002046009501F042FD08B10120E5E721202C
:1012B00084F84100402084F84200002060646762A6
:1012C000A4F82A8060635B46524649462046CDE931
:1012D000006501F0D1FC30B100BF002084F840006F
:1012E00000BF0120C9E7608DFF280CD9FF202085B1
:1012F0000020009094F828204FF080734946204643
:1013000001F0F8FC0BE0608D20850020009094F83F
:1013100028204FF000734946204601F0EBFC00BF47
:101320002A463146204601F05BFD08B10120A4E7C2
:10133000606A007821688862606A401C6062608D23
:10134000401E6085208D401E2085608D40B3208D1D
:1013500030BB3346002280212046009501F0E6FC98
:1013600010B1012089E73AE0608DFF280CD9FF20F9
:1013700020850020009094F828204FF08073494683
:10138000204601F0B7FC0BE0608D20850020009026
:1013900094F828204FF000734946204601F0AAFC3B
:1013A000608D0028BCD12A463146204601F0EDFC74
:1013B00008B1012061E720202168C86120684068E9
:1013C0000849084021684860202084F84100002036
:1013D00084F8420000BF84F8400000BF4DE70220BF
:1013E0004BE7000000E800FE3CBCBDE8C09F0000E9
:1013F00010B59CB00446142117A8FEF740FF5421F5
:1014000002A8FEF73CFF48492068884235D14020B9
:10141000029000200D9002A800F0AEF908B1FFF78D
:1014200083FB00BF4148C06C40F001003F49C864E5
:101430000846C06C00F00100019000BF00BF4FF4EF
:10144000C0601790122018900020199003201A9065
:1014500004201B9017A94FF09040FFF781FC00BFBC
:101460003248806D40F40010304988650846806D30
:1014700000F40010019000BF53E02D49206888421D
:101480004FD18015029000200E9002A800F074F950
:1014900008B1FFF749FB00BF2448C06C40F00100D1
:1014A0002249C8640846C06C00F00100019000BFEA
:1014B00000BF00BF0846C06C40F00200C864084688
:1014C000C06C00F00200019000BF00BF80201790A8
:1014D000122018900020199003201A9004201B90CD
:1014E00017A94FF09040FFF73BFC102017901220F7
:1014F00018900020199003201A9004201B9017A91F
:101500000C48FFF72DFC00BF0848806D40F4000038
:10151000064988650846806D00F40000019000BF10
:1015200000BF1CB010BD000000540040001002407D
:10153000005C004000040048034800680349097843
:101540000844014908607047B4000020BC00002036
:1015500010B50024032000F0ADF8002000F008F8DA
:1015600008B1012401E000F02FF8204610BD000072
:1015700070B50446002511480078D8B10F480078AE
:101580004FF47A71B1FBF0F00D490968B1FBF0F648
:10159000304600F0B9FF58B9102C07D2002221467E
:1015A000501E00F045F80748046004E0012502E001
:1015B000012500E00125284670BD0000BC00002088
:1015C000C0000020B800002008B500BF0D48006E24
:1015D00040F001000B4908660846006E00F001006B
:1015E000009000BF00BF00BF0846806D40F08050F3
:1015F00088650846806D00F08050009000BF00BFF5
:1016000008BD0000001002400146084600280DDB1E
:1016100000BF00BF00F01F0301229A4043099B0056
:1016200003F1E023C3F8002100BF00BF00BF7047F3
:101630002DE9F05F80460D461646002702F058F966
:10164000074639462A46334601F00700C0F1070A2B
:10165000BAF1040F02D94FF0040A01E0C0F1070A01
:10166000D14600F1040ABAF1070F02D24FF0000A86
:1016700001E0A0F1030AD4464FF0010A0AFA09FA80
:10168000AAF1010A0AEA020A0AFA0CFA4FF0010B5F
:101690000BFA0CFBABF1010B0BEA030B4AEA0B0450
:1016A0002146404602F02CF900F000B830BCBDE8FD
:1016B000C09F000000BF00F00702064B19684FF6FC
:1016C000FF031940044B0B4343EA0221014B19600D
:1016D00000BF70470CED00E00000FA050246B2F5CD
:1016E000007F2AD11D48006800F4C060B0F5007F7B
:1016F00032D01A48006820F4C06040F40070174BE4
:1017000018601748006832235843164BB0FBF3F0BB
:10171000411C00E0491E1148406900F48060B0F5AA
:10172000806F01D10029F5D10C48406900F4806038
:10173000B0F5806F10D1032070470848006800F4AE
:10174000C060B0F5806F07D00448006820F4C06026
:1017500040F48060014B18600020EDE7007000400D
:10176000C000002040420F000248006800F4C06042
:1017700070470000007000402DE9F8430446002542
:10178000A846208800F40060B0F5006F26D1E06B19
:1017900068B1B0F5000F03D0B0F5400F0ED10CE0EA
:1017A000C648C06840F48030C449C86008E00021E1
:1017B000201D01F015FC054602E001E0012500BFF7
:1017C00000BF55B9BD488830006820F44000E16B87
:1017D0000843BA49C1F8880000E0A846206800F430
:1017E0000030B0F5003F75D14FF00009B348806D6F
:1017F000012121EA107078B100BFB048806D40F03F
:101800008050AE4988650846806D00F08050009099
:1018100000BF00BF4FF00109A948006840F4807084
:10182000A7490860FFF76EFB074606E0FFF76AFB73
:10183000C01B022801D9032505E0A148006800F477
:1018400080700028F2D000BF7DBB9C4890300068BB
:1018500000F44076CEB1206DB04216D0974890305B
:10186000006820F440769548D0F8900040F480302D
:101870009249C1F890000846D0F8900020F48030DA
:10188000C1F890000846C0F8906006F00100A8B1C9
:10189000FFF738FB074609E0FFF734FBC01B41F2B6
:1018A0008831884202D9032507E016E0834890304A
:1018B000006800F002000028EED000BF5DB97F484C
:1018C0009030006820F44070216D08437B49C1F8D6
:1018D000900003E00CE0A84600E0A846B9F1010F33
:1018E00005D17648806D20F080507449886500BF2E
:1018F000207800F0010048B170488830006820F07E
:101900000300216A08436D49C1F88800207800F07F
:101910000200022809D169488830006820F00C00D4
:10192000616A08436549C1F88800207800F020000A
:10193000202809D161488830006820F44060A16AFD
:1019400008435E49C1F88800208800F40070B0F5B3
:10195000007F09D159488830006820F44020616B2D
:1019600008435649C1F88800208800F48060B0F52B
:10197000806F09D151488830006820F44010A16B75
:1019800008434E49C1F88800207800F04000402804
:1019900009D14A488830006820F44050E16A084381
:1019A0004649C1F88800208800F48070B0F5807F37
:1019B00009D142488830006820F44030216B084348
:1019C0003E49C1F88800208800F40050B0F5005F5F
:1019D0001FD13A488830006820F04060216C0843ED
:1019E000364988310860206CB0F1006F06D1334869
:1019F000C06840F480103149C8600AE0206CB0F142
:101A0000806F06D10121201D01F0EAFA054605B1DB
:101A1000A846206800F48020B0F5802F1FD1274809
:101A20008830006820F04060616C084323498831A9
:101A30000860606CB0F1006F06D12048C06840F4C7
:101A400080101E49C8600AE0606CB0F1806F06D15A
:101A50000121201D01F0C4FA054605B1A8462088E1
:101A600000F48040B0F5804F14D1144888300068ED
:101A700020F04050A16C0843104988310860A06CE8
:101A8000B0F1805F06D10221201D01F0A9FA0546C0
:101A900005B1A846208800F40040B0F5004F09D1F8
:101AA00006488830006820F08040E16C0843034914
:101AB000C1F888004046BDE8F883000000100240ED
:101AC000007000402DE9F04104460D4614B9012094
:101AD000BDE8F0816348006800F00700A8420ED21C
:101AE0006048006820F0070028435E490860084607
:101AF000006800F00700A84201D00120E8E7207844
:101B000000F0020002280ED15749A068896801F050
:101B1000F001884207D95448806820F0F000A1689D
:101B2000084351498860207800F0010078B360686C
:101B3000032806D14C48006800F00070D8B9012095
:101B4000C6E76068022806D14748006800F4003004
:101B500088B90120BCE7606830B94348006800F0EC
:101B6000020040B90120B3E73F48006800F48060FC
:101B700008B90120ACE73C48806820F003006168A8
:101B8000084339498860FFF7BDF9064609E010E0CF
:101B9000FFF7B8F9801B41F28831884201D9032050
:101BA00096E73148806800F00C006168B0EB810F67
:101BB000EED1207800F0020002280ED12A49A06858
:101BC000896801F0F001884207D22748806820F038
:101BD000F000A1680843244988602248006800F0AA
:101BE0000700A8420ED91F48006820F007002843CC
:101BF0001C4908600846006800F00700A84201D0B0
:101C0000012065E7207800F00400042807D1164879
:101C1000806820F4E060E168084313498860207818
:101C200000F00800082808D10F48806820F46050B0
:101C3000216940EAC1000C49886000F047F80A4970
:101C40008968C1F30311094A515C01F01F01C840C2
:101C50000749086007480068FFF78AFC07463846CE
:101C600036E70000002002400010024098BD000846
:101C7000C0000020B8000020014800687047000044
:101C8000C000002000B5FFF7F7FF05498968C1F3E0
:101C90000221044A515C01F01F01C84000BD000050
:101CA00000100240A8BD000800B5FFF7E5FF054998
:101CB0008968C1F3C221044A515C01F01F01C84088
:101CC00000BD000000100240A8BD0008F0B50023D0
:101CD0000020DFF8D4C0DCF808C00CF00C01DFF8FD
:101CE000C8C0DCF80CC00CF0030719B10C291ED1D8
:101CF000012F1CD1DFF8B0C0DCF800C00CF0080CDC
:101D0000BCF1000F06D1DFF8A0C0DCF894C0CCF322
:101D1000032305E0DFF890C0DCF800C0CCF3031328
:101D2000DFF888C05CF8233041B9184606E0042982
:101D300001D11F4802E0082900D11E480C2932D1E8
:101D4000DFF864C0DCF80CC00CF00304012C09D0EF
:101D5000022C02D0032C04D101E0154A04E0154AFC
:101D600002E000BF1A4600BF00BFDFF83CC0DCF84D
:101D70000CC0CCF3021C0CF10106DFF82CC0DCF81F
:101D80000CC0CCF3062C0CFB02FCBCFBF6F2DFF81B
:101D900018C0DCF80CC0CCF3416C0CF1010C4FEA1C
:101DA0004C05B2FBF5F0F0BD00100240B0BD0008DC
:101DB0000024F40000127A002DE9F843044614B917
:101DC0000120BDE8F883F948806800F00C06F74868
:101DD000C06800F00307207800F01000102877D1C9
:101DE0001EB10C2E76D1012F74D1F048006800F09E
:101DF000020018B1A06908B90120E2E7EB48216AA6
:101E0000006800F0080020B1E848006800F0F00029
:101E100005E0E6489430006800F4706000098142F3
:101E20001FD9206A01F0A0F908B10120C9E700BF5D
:101E3000DE48006840F00800DC4908600846006899
:101E400020F0F000216A0843D849086000BF084626
:101E5000406820F47F40E16940EA0120D3494860AE
:101E60001FE000BFD148006840F00800CF4908607B
:101E70000846006820F0F000216A0843CB4908605A
:101E800000BF0846406820F47F40E16940EA012035
:101E9000C64948602EB9206A01F066F908B10120F0
:101EA0008FE7FFF713FFC1498968C1F30311C04AE7
:101EB000515C01F01F01C840BE490860BE4800687F
:101EC000FFF756FB8046B8F1000F4ED0404678E74A
:101ED0004BE0FFE7A06980B3B448006840F0010020
:101EE000B2490860FFF70EF8054606E0FFF70AF86A
:101EF000401B022801D9032063E7AC48006800F0CA
:101F000002000028F2D000BFA848006840F0080096
:101F1000A64908600846006820F0F000216A0843DE
:101F2000A249086000BF0846406820F47F40E1698C
:101F300040EA01209D49486017E0FFE79B480068A0
:101F400020F0010099490860FEF7DCFF054606E035
:101F5000FEF7D8FF401B022801D9032031E7934840
:101F6000006800F002000028F2D1207800F00100A3
:101F700000285CD0082E03D00C2E0AD1032F08D1E4
:101F80008A48006800F4003088B3606878BB01209C
:101F900017E700BF6068B0F5803F06D1834800684E
:101FA00040F48030814908601AE06068B0F5A02FE5
:101FB0000BD17E48006840F480207C4908600846C8
:101FC000006840F4803008600AE07848006820F437
:101FD0008030764908600846006820F48020086058
:101FE00000BF606890B1FEF78DFF054607E01EE078
:101FF000FEF788FF401B642801D90320E1E66B4807
:10200000006800F400300028F2D010E0FEF77AFFFC
:10201000054606E0FEF776FF401B642801D9032041
:10202000CFE66248006800F400300028F2D1207842
:1020300000F00200022852D1042E03D00C2E14D13D
:10204000022F12D15948006800F4806018B1E0688E
:1020500008B90120B5E65548406820F0F850217CC9
:1020600040EA01605149486039E0E06800B34F48F8
:10207000006840F480704D490860FEF743FF054654
:1020800006E0FEF73FFF401B022801D9032098E637
:102090004648006800F480600028F2D04348406859
:1020A00020F0F850217C40EA01604049486016E089
:1020B0003E48006820F480703C490860FEF722FF2B
:1020C000054606E0FEF71EFF401B022801D903204B
:1020D00077E63648006800F480600028F2D1207866
:1020E00000F00800082836D16069D0B12F4894303C
:1020F000006840F001002D49C1F89400FEF702FF8E
:10210000054606E0FEF7FEFE401B022801D903202B
:1021100057E626489430006800F002000028F1D00D
:1021200019E022489430006820F001001F49C1F8EE
:102130009400FEF7E7FE054606E0FEF7E3FE401BCF
:10214000022801D903203CE618489430006800F0CA
:1021500002000028F1D1207800F00400042872D198
:102160004FF000091148806D00F0805078B900BF31
:102170000E48806D40F080500C4988650846806D9F
:1021800000F08050009000BF00BF4FF001090B48E5
:10219000006800F4807000BB0848006840F480705C
:1021A00006490860FEF7AEFE054610E0001002404A
:1021B00098BD0008C0000020B8000020007000405A
:1021C000FEF7A0FE401B022801D90320F9E5CA480A
:1021D000006800F480700028F2D000BFA0680128D9
:1021E00008D1C648006840F00100C4499039C1F8E0
:1021F000900021E0A06805280FD1C048006840F099
:102200000400BE499039C1F890000846D0F890000B
:1022100040F00100C1F890000EE0B848006820F0DE
:102220000100B6499039C1F890000846D0F89000F6
:1022300020F00400C1F8900000BFA068A0B1FEF734
:1022400061FE054609E02EE0FEF75CFE401B41F210
:102250008831884201D90320B3E5A848006800F01E
:1022600002000028F0D012E0FEF74CFE054608E020
:10227000FEF748FE401B41F28831884201D9032015
:102280009FE59E48006800F002000028F0D1B9F1F7
:10229000010F07D199489038806D20F08050974900
:1022A0009039886500BF207800F02000202838D1C0
:1022B000606AD8B191480830006840F001008F4949
:1022C0009039C1F89800FEF71DFE054606E0FEF7BE
:1022D00019FE401B022801D9032072E58748083007
:1022E000006800F002000028F1D01AE083480830AE
:1022F000006820F0010081499039C1F89800FEF78C
:1023000001FE054606E0FEF7FDFD401B022801D94F
:10231000032056E579480830006800F002000028E4
:10232000F1D1A06A00287DD0A06A02287BD1734831
:102330009038C76807F00301E06A814225D107F0B1
:102340007001206B401EB1EB001F1ED107F4FE414F
:10235000606BB1EB002F18D107F078413820005D99
:10236000B1EBC06F11D107F4C001A08F0122C2EB05
:102370005000B1EB405F08D107F0C0614020005D24
:10238000C2EB5000B1EB406F66D00C2E62D05B48C0
:102390009038006800F0806008B1012011E55748CE
:1023A0009038006820F08070544990390860FEF73A
:1023B000A9FD054606E0FEF7A5FD401B022801D950
:1023C0000320FEE44D489038006800F000700028BB
:1023D000F1D1D4E90B10401E41EA0011606B41EAD3
:1023E0000021A08F0122C2EB500041EA4051402061
:1023F000005DC2EB500041EA40613820005D41EAD7
:10240000C0603E499039C9683D4A114008433B4984
:102410009039C8600846006840F08070086008463F
:10242000C06801E053E03DE040F08070C860FEF716
:1024300069FD054606E0FEF765FD401B022801D94F
:102440000320BEE42D489038006800F0007000289A
:10245000F1D04FE00120B4E428489038006800F043
:102460000070A0BB25489038006840F08070234978
:10247000903908600846C06840F08070C860FEF778
:1024800041FD054606E0FEF73DFD401B022801D94F
:10249000032096E419489038006800F00070002886
:1024A000F1D027E00C2E23D014489038006820F09B
:1024B0008070124990390860FEF724FD054607E058
:1024C000FEF720FD401B022802D9032079E411E029
:1024D0000A489038006800F000700028F0D10748E2
:1024E0009038C0680749084004499039C86001E045
:1024F000012066E4002064E4007000409010024077
:102500008C809D01FCFFEEFE70B504462546681EDA
:10251000B0F1807F01D301200FE0681E4FF0E02171
:1025200048610F214FF0FF3001F0EAF900204FF031
:10253000E021886107200861002070BD7047704766
:10254000704700002DE9F04704462068C5692068FF
:1025500006682068876840F60F0005EA0009B9F1AF
:10256000000F0CD105F0200048B106F0200030B17A
:10257000606E10B12046616E8847BDE8F087B9F102
:10258000000F7DD007F0010018B9BE483040002888
:10259000F7D005F0010058B106F4807040B1012079
:1025A00021680862D4F8800040F00100C4F880007F
:1025B00005F0020058B107F0010040B10220216887
:1025C0000862D4F8800040F00400C4F8800005F0F0
:1025D000040058B107F0010040B1042021680862EE
:1025E000D4F8800040F00200C4F8800005F0080034
:1025F00070B106F0200010B907F0010040B10820CA
:1026000021680862D4F8800040F00800C4F8800017
:1026100005F4006060B106F0806048B14FF40060DE
:1026200021680862D4F8800040F02000C4F88000DF
:10263000D4F8800000284BD005F0200038B106F017
:10264000200020B1606E10B12046616E8847D4F83A
:1026500080A02068806800F04000402802D00AF086
:10266000280070B3204600F0DAFE2068806800F091
:102670004000402821D100BF00BF2168083100E0A0
:1026800027E051E8001F21F040002168083141E8AF
:102690000002002AF1D100BF206F50B17A48216FAB
:1026A0008863206FFEF7FDFA90B1206F816B884739
:1026B0000EE02046FFF744FF0AE02046FFF740FF08
:1026C00006E0FFE72046FFF73BFF0020C4F880004C
:1026D00053E7206E01286FD105F0100000286BD061
:1026E00006F010000028FAD0102021680862206847
:1026F000806800F0400040285FD1206F006840688B
:102700001FFA80F8B8F1000F55D0B4F858004045D2
:1027100051DDA4F85A80206F0068006800F02000A6
:10272000E8BB00BF00BF216851E8001F21F48070A2
:10273000226842E800010029F5D100BF00BF00BFB8
:102740002168083151E8001F21F00100216808319B
:1027500041E80002002AF3D100BF00BF00BF21689A
:10276000083151E8001F21F040002168083141E89C
:102770000002002AF3D100BF2020E067002020667D
:1027800000BF00BF216851E8001F21F0100022683F
:1027900042E800010029F5D100BF206F00E001E010
:1027A000FEF752FAB4F85800B4F85A20801A81B2F1
:1027B0002046FFF7C3FEE0E63EE034F8580F61889C
:1027C000401A1FFA80F86088583CA0B3B8F1000F97
:1027D00031D000BF00BF216851E8001F21F4907084
:1027E000226842E800010029F5D100BF00BF00BF08
:1027F0002168083151E8001F21F0010021680831EB
:1028000041E80002002AF3D100BF2020E067002049
:102810002066606600BF00BF216851E8001F21F0FC
:102820001000226842E800010029F5D100BF4146AE
:102830002046FFF783FEA0E605F4801050B107F4B0
:10284000800038B14FF48010216808622046FFF7FD
:1028500076FE92E605F0800040B106F0800028B1D7
:10286000A06E10B12046A16E884786E605F04000B4
:1028700030B106F0400018B1204600F002FE7CE6C0
:1028800000BF7AE6200100040734000810B50446B2
:102890000CB9012010BDA06900B100E000BFA06F1D
:1028A00028B9002084F87400204600F029F824207C
:1028B000A0672068006820F00100216808602046B9
:1028C00000F0F6FD012800D1E4E7606A10B120466F
:1028D00000F0E4FC2068406820F4904021684860E3
:1028E0002068806820F02A002168886020680068DD
:1028F00040F0010021680860204600F04BFDC9E768
:1029000010B59CB00446142117A8FDF7B8FC54215B
:1029100002A8FDF7B4FC2149206888423BD102207F
:10292000029000200B9002A8FEF726FF08B1FEF7E8
:10293000FBF800BF1A48806D40F4003018498865E4
:102940000846806D00F40030019000BF00BF00BF5A
:102950000846C06C40F00100C8640846C06C00F036
:102960000100019000BF00BF0C20179002201890BA
:102970000020199003201A9007201B9017A94FF0F0
:102980009040FEF7EDF9002203212620FEF750FECD
:102990002620FEF739FE1CB010BD000000440040A8
:1029A000001002402DE9F84F04460E46174699469E
:1029B000A06F20285DD106B117B9012000F05BB8E7
:1029C00000BF94F87400012801D10220F6E701202D
:1029D00084F8740000BF0020503420632120A062DE
:1029E000FEF790FA824627806780503CA068B0F5D9
:1029F000805F04D1206910B90025B04602E0354659
:102A00004FF0000800BF002084F8740000BF1DE0F4
:102A10005346002280212046CDF8009000F0A5FE0C
:102A200008B10320CAE745B9B8F80000C0F30800B0
:102A30002168088508F1020803E0287821680885E4
:102A40006D1CB4F85200401EA4F85200B4F85200B5
:102A50000028DDD15346002240212046CDF80090C9
:102A600000F083FE08B10320A8E72020A067002023
:102A7000A4E70220A2E718BCBDE8E08F704700BFC2
:102A8000FEE701688969C1F3400111B100210268C4
:102A900091620168896901F0010129B901688969B8
:102AA00041F0010102689161704700002DE9F74F84
:102AB00004460E4600272068D0F818800025DDF86F
:102AC000089008F01000102850D12168C8613FE03C
:102AD000701C00283CD0FEF715FAA0EB0900B042AC
:102AE00000D8AEBB2068406800F4804A94F842B039
:102AF00020688069C0F3C03070B1BAF5804F0BD048
:102B0000BBF1200F08D02068406840F48040216865
:102B10004860FEF7F7F9814614E0FEF7F3F9A0EB01
:102B2000090019280ED9606C40F020006064202054
:102B300084F84100002084F8420000BF84F840007F
:102B400000BF012720688069C0F340100028E4D04E
:102B500020688069C0F3401008B9002FB8D017B9B9
:102B600020202168C86145F0040501272068D0F8BD
:102B7000188008F48070B0F5807F06D145F001051B
:102B80004FF480702168C861012708F48060B0F5B7
:102B9000806F06D145F008054FF480602168C86158
:102BA000012708F40070B0F5007F06D145F002055A
:102BB0004FF400702168C8610127AFB12046FFF7CC
:102BC00060FF206840680A49084021684860606CDE
:102BD00028436064202084F84100002084F84200EB
:102BE00000BF84F8400000BF384600F003B8000082
:102BF00000E800FE1EBCBDE8E08F00002DE9F843B0
:102C00000446894615461E46DDE908781948F2B2A1
:102C1000002349460090204600F06CF842463946B1
:102C2000204600F0DDF810B10120BDE8F883012E48
:102C300003D1E8B2216888620EE0C5F3072021685D
:102C4000886242463946204600F0CAF808B10120A1
:102C5000EBE7E8B2216888623B460022402120462B
:102C6000CDF8008000F062F808B10120DDE7002017
:102C7000DBE70000002000802DE9F8430446894688
:102C800015461E46DDE908781948F2B2C3024946E6
:102C90000090204600F02EF842463946204600F0CB
:102CA0009FF810B10120BDE8F883012E03D1E8B2EE
:102CB000216888620EE0C5F30720216888624246D9
:102CC0003946204600F08CF808B10120EBE7E8B265
:102CD000216888623B46002280212046CDF8008092
:102CE00000F024F808B10120DDE70020DBE7000058
:102CF00000200080F0B5059CC1F309064FF47F0762
:102D000007EA02473E431E43264326F00045066875
:102D100076684FF4806707EA545767F0FC2747F45A
:102D2000C047BE432E4307687E60F0BD2DE9F041E9
:102D300004460E4617461D46DDF8188019E0681C4B
:102D4000B8B1FEF7DFF8A0EB0800A84200D885B9BB
:102D5000606C40F020006064202084F84100002076
:102D600084F8420000BF84F8400000BF0120BDE8A5
:102D7000F081206880693040B04201D1012000E03C
:102D80000020B842DBD00020F1E770B504460D46C4
:102D900016461DE0324629462046FFF787FE08B159
:102DA000012070BDFEF7AEF8801BA84200D87DB9A7
:102DB000606C40F020006064202084F84100002016
:102DC00084F8420000BF84F8400000BF0120E8E71B
:102DD00020688069C0F340100028DBD00020E0E7C5
:102DE00070B504460D4616461FE032462946204679
:102DF000FFF75CFE08B1012070BD681CA8B1FEF7AA
:102E000081F8801BA84200D87DB9606C40F020009A
:102E10006064202084F84100002084F8420000BF54
:102E200084F8400000BF0120E6E720688069C0F315
:102E300040000028D9D00020DEE7000010B50A4885
:102E40000A49086000200871002108484171416169
:102E500081610120054908620846FDF79BFE08B123
:102E6000FDF762FE10BD0000003002403437002044
:102E700000B587B0142102A8FDF701FA00BF17487A
:102E8000C06C40F001001549C8640846C06C00F0F1
:102E90000100019000BF00BF00BF0846C06C40F0B9
:102EA0000200C8640846C06C00F00200019000BF38
:102EB00000BF022002904FF488100390002004907D
:102EC00002A90748FDF74CFF002202210720FEF768
:102ED000AFFB0720FEF798FB07B000BD00100240D3
:102EE0000004004810B512481249086012484860B2
:102EF0000021104881600121C16000210161416110
:102F00008161C1610162FEF76DF808B1FDF70CFE49
:102F100000210848FDF7FCFF08B1FDF705FE002180
:102F20000448FEF72AF808B1FDF7FEFD10BD0000C9
:102F30000054004058370020EC9C901010B5124807
:102F40001249086012484860002110488160012140
:102F5000C1600021016141618161C1610162FEF7CF
:102F600041F808B1FDF7E0FD00210848FDF7D0FF6A
:102F700008B1FDF7D9FD00210448FDF7FEFF08B1B7
:102F8000FDF7D2FD10BD0000005C0040AC37002012
:102F9000EC9C901010B50D480D4908604FF4E130DD
:102FA000486000210A488160C16001610C214161D3
:102FB00000218161C1610162002005494862084623
:102FC000FFF764FC08B1FDF7AFFD10BD0044004001
:102FD0000038002000BFFEE700BFFEE7704700009A
:102FE0002DE9F04104460F4600255B48C06800F01B
:102FF000030090B15848C06800F00300216888427F
:1030000009D1206838B15448C068C0F30210401C90
:103010006168884233D0012531E02068012804D05E
:10302000022809D003281AD10DE04B48006800F0AF
:10303000020000B9012514E04748006800F48060F0
:1030400000B901250DE04448006800F4003028B9BB
:103050004148006800F4802000B9012501E0012505
:1030600000BF00BF5DB9D4E90010401E41EA001066
:103070003949C96821F0730108433749C860002DF8
:1030800067D13548006820F0806033490860FDF75B
:1030900039FF064606E0FDF735FF801B022801D9FF
:1030A000032505E02C48006800F000600028F2D1FC
:1030B00000BFC5BB67B9A0680002217B40EAC160C0
:1030C00025490969254A114008432349086120E040
:1030D000012F0FD1A0680002218A0122C2EB510109
:1030E00040EA41501C4909691D4A114008431A49E8
:1030F00008610EE0A0680002217D0122C2EB5101AF
:1031000040EA416014490969164A114008431249CE
:1031100008611148006840F080600F490860FDF7C1
:10312000F1FE064607E014E0FDF7ECFE801B0228E6
:1031300001D9032505E00848006800F00060002878
:10314000F2D000BF2DB904480069A16908430249C3
:1031500008612846BDE8F08100100240FF80FF07AB
:10316000FF809FFFFF80FFF9F8B504460026234843
:10317000806D00F0805018B1FEF7F6FA054616E0B3
:1031800000BF1E48806D40F080501C49886508468D
:10319000806D00F08050009000BF00BFFEF7E4FAA1
:1031A00005461648806D20F0805014498865B5F5B5
:1031B000007F07D1802C10D9A02C01D902260CE069
:1031C00001260AE0802C01D9032606E0802C01D1DB
:1031D000022602E0702C00D101260948006820F088
:1031E00007003043064908600846006800F0070001
:1031F000B04201D00120F8BD0020FCE700100240E1
:1032000000200240704710B5FEF796F910BD00B5DA
:1032100097B0442106A8FDF732F8142101A8FDF764
:103220002EF84FF40070FEF759FA08B1FDF77CFC58
:103230001020069001200C9000200D9060200E9030
:103240000220109001211191129128211391072140
:10325000149102211591169106A8FEF7ADFD08B153
:10326000FDF762FC0F2001900320029000200390E4
:1032700004900590042101A8FEF724FC08B1FDF795
:1032800053FC17B000BD00000348006840F4700014
:10329000014908607047000088ED00E090F82410B4
:1032A00001F0010139B10168496821F40031826AF5
:1032B00011430268516090F8241001F002010229C4
:1032C00007D10168496821F48031C26A114302685C
:1032D000516090F8241001F00401042907D101681D
:1032E000496821F48021026B11430268516090F813
:1032F000241001F00801082907D10168496821F468
:103300000041426B11430268516090F8241001F0B3
:103310001001102907D10168896821F48051826B5E
:1033200011430268916090F8241001F020012029D7
:1033300007D10168896821F40051C26B114302680A
:10334000916090F8241001F04001402913D10168E8
:10335000496821F48011026C114302685160016CCC
:10336000B1F5801F07D10168496821F4C001426CA2
:1033700011430268516090F8241001F08001802907
:1033800007D10168496821F40021826C1143026869
:103390005160704738B504460020C4F88000FDF73E
:1033A000B1FD05462068006800F0080008280CD12F
:1033B0006FF07E402B4600224FF400110090204613
:1033C00000F0D3F908B1032038BD2068006800F090
:1033D000040004280CD16FF07E402B4600224FF4ED
:1033E00080010090204600F0C0F908B10320EBE70F
:1033F0002020A067E0670020206600BF84F87400EA
:1034000000BF00BFE0E770B50546AC6A0020A4F835
:103410005A00A4F852002046FFF792F870BD00BF92
:1034200000BF026852E8002F22F49071036843E85D
:103430000012002AF5D100BF00BF00BF02680832A9
:1034400052E8002F22F001010268083242E800131E
:10345000002BF3D100BF016E01290CD100BF00BFCA
:10346000026852E8002F22F01001036843E80012BE
:10347000002AF5D100BF2021C16700210166416605
:10348000704710B5044600BF00BF216851E8001F17
:1034900021F04000226842E800010029F5D100BF78
:1034A0002020A0670020A0662046FFF7E7FA10BDA5
:1034B0002DE9F84F044600200090A4492068884276
:1034C00000D100E000BF2169A0680843616908439A
:1034D000E16940EA010A206800689D49084040EA25
:1034E0000A00216808602068406820F44050E168C4
:1034F000084321684860D4F818A09449206888429D
:1035000002D0206A40EA0A0A2068806820F430600D
:1035100040EA0A002168886000BF8E49206888421E
:1035200016D18D48006800F0030030B1012808D0A2
:10353000022804D0032808D105E0012607E002266E
:1035400005E0042603E0082601E0102600BF39E06C
:1035500082492068884216D17F48006800F00C003C
:1035600030B1042808D0082804D00C2808D105E080
:10357000002607E0022605E0042603E0082601E015
:10358000102600BF1EE071492068884219D1724898
:10359000006800F4406048B1B0F5806F0AD0B0F523
:1035A000006F05D0B0F5406F08D105E0002607E0B8
:1035B000022605E0042603E0082601E0102600BFED
:1035C00000E0102600BF61492068884245D136B12D
:1035D000022E08D0042E08D0082E0DD109E0FEF7E7
:1035E00051FB05460CE05E4D0AE0FEF76FFB054619
:1035F00006E04FF4004503E000250120009000BFE5
:1036000000BF002D0AD0606800EB4000A84203D83C
:1036100060680003A84202D20120009090E04FF4BD
:103620008070A5FB0030D4F804C04FEA5C015F183D
:1036300040F10001624600233846FCF7C5FD814693
:10364000B9F5407F06D3B9F5801F03D22068C0F8D2
:103650000C9075E00120009072E0E069B0F5004F39
:103660003AD1092E17D2DFE806F005090D160F161C
:1036700016161300FEF706FB054610E0FEF714FBD6
:1036800005460CE0364D0AE0FEF720FB054606E055
:103690004FF4004503E000250120009000BF00BF6B
:1036A0008DB36800616800EB5100B0FBF1F9B9F12E
:1036B000100F0ED3B9F5803F0BD24FF6F07009EA28
:1036C000000BC9F342004BEA000B2068C0F80CB0B5
:1036D00036E00120009033E0092E18D2DFE806F032
:1036E00005090D170F1717171400FEF7CBFA05463B
:1036F00011E0FEF7D9FA05460DE0194D0BE0FEF793
:10370000E5FA054607E01BE04FF4004503E000251D
:103710000120009000BF00BF95B1606805EB50002C
:103720006168B0FBF1F9B9F1100F07D3B9F5803F2B
:1037300004D21FFA89F02168C86001E001200090DE
:1037400000206066A066009800F00CB80080004081
:10375000F369FFEF00380140881002400044004048
:103760000024F40018BCBDE8E08F2DE9F0410446C8
:103770000D4617469846069E67E0701C002864D0E8
:10378000FDF7C0FBA0EB0800B04200D836BB00BF7D
:1037900000BF216851E8001F21F4D070226842E880
:1037A00000010029F5D100BF00BF00BF216808312A
:1037B00051E8001F21F001002168083141E80002B2
:1037C000002AF3D100BF2020A067E06700BF0020DF
:1037D00084F8740000BF0320BDE8F0812068006811
:1037E00000F0040080B32068C069C0F3C02058B363
:1037F0004FF400602168086200BF00BF216851E8F3
:10380000001F21F4D070226842E800010029F5D1A0
:1038100000BF00BF00BF2168083151E8001F21F040
:1038200001002168083141E80002002AF3D100BFFD
:103830002020A067E067C4F8800000BF002084F863
:10384000740000BF0320C7E7FFE72068C069284075
:10385000A84201D1012000E00020B8428DD0002014
:10386000BAE7000010B50248FEF76CFE10BD00007C
:103870000038002000BFFEE70FB4054B10B503A9C8
:10388000044A029801F010FE10BC5DF814FB000021
:1038900021690008CC0C002003B401984100009875
:1038A00050EAC12018BF04204A0D18BF40F00100A3
:1038B00040F2FF72B2EB515F08BF40F002000128F6
:1038C00008BF052002B070474100080218BF04205D
:1038D0000A0E18BF40F001004FF07F4232EA0101AA
:1038E00008BF40F00200012808BF05207047000013
:1038F00002480068C0F30220704700000CED00E0B1
:1039000010B5002804DB0A07130E054A135406E01D
:103910000A07140E034A00F00F031B1FD45410BDF6
:1039200000E400E018ED00E09FED3C0A63E000BF1A
:1039300092ED003A91ED004AD2ED012AD1ED013A23
:1039400004EE030A92ED022A91ED021AD2ED030A67
:10395000D1ED031A91ED044A03EEA20AD2ED043A26
:1039600092ED053AD1ED052A01EE020A92ED062A02
:1039700092ED071A01EEA00AD1ED061AD1ED070A61
:1039800004EE230AD2ED083A91ED084A02EE830ACA
:10399000D2ED092A91ED093A01EE820A92ED0A2A46
:1039A000D1ED0A1A00EE810A92ED0B1AD1ED0B0A45
:1039B00004EE230A91ED0C4AD1ED0D3A03EE220AF2
:1039C00092ED0C3AD2ED0D2A01EE820A92ED0E2A0A
:1039D000D1ED0F1A00EE810A91ED0E1AD2ED0F0A09
:1039E00040314032103B04EE030A03EEA20A01EE1E
:1039F000020A01EEA00A102B9AD206E0F1EC010AAD
:103A00005B1EB2EC011A00EE810A002BF6D1D0ED5C
:103A1000000A30EE800A80ED000A704700000000C6
:103A200030B528B1144C031F002021680A4605E078
:103A3000084630BD9A4203D810465268002AF9D190
:103A4000002800D041680BD00468A3EB0005A54214
:103A500004D11B681C440346046002E0436000E09C
:103A600023603AB11C68D51AA54203D115682C44CD
:103A70001C6052685A6030BDD00C002010B510EEAA
:103A8000104A4FF019406849002200EB44002DED28
:103A9000028B884257D8DFED650A14F0004F60EEC4
:103AA000200A14BFBEEE001AB6EE001A71EE200A0C
:103AB000FDEEE00A10EE900A00EE900AF8EEE00A41
:103AC0009FED5B1A00EEC10A9FED5A1A00EEC10A83
:103AD000DFED590A9FED591A00EE201ADFED580A62
:103AE00040EE010A9FED571A574B00F0030100EE1C
:103AF000201A21EE000A7B4403EB8103D3ED000A78
:103B0000524B7B4403EB810393ED001A504B41EE83
:103B1000000A7B4403EB8101801091ED000A70EEF6
:103B2000800AEABB00EE100AB8EEC01ADFED491AAF
:103B30009FED490ABDEC028B01EE210ABCEEC00AE2
:103B400020EE200A10BD4FF0FF40A0431BD04FF0E5
:103B5000CE40B0EB440F82BFB7EE000ABDEC028B43
:103B600010BD3E48B0EB440F28BF012293D2022083
:103B700001F01EF814F0004F15D0BDEC028BBDE82B
:103B8000104000F0FDBF14F5000F02BF9FED340A96
:103B9000BDEC028B10BDBDEC028BBDE8104000E017
:103BA00007E000F0E1BFBDEC028BBDE8104000F083
:103BB000DFBF00EBD07359104FF07E5202EBC151C2
:103BC00000EE101AA0EB630002EBC05060EE200A7A
:103BD00000EE100A20EE208A18EE100A88B118EEC6
:103BE000100AB0F1FF4F15D018EE100AFFF76CFE67
:103BF000042808BF00F0C4FFB0EE480ABDEC028BF9
:103C000010BD022000F0D4FFBDEC028BBDE81040D7
:103C100000F0B6BF022000F0CBFFBDEC028BBDE888
:103C2000104000F0A5BF00000000501E3BAAB840A5
:103C30000070313EF4FD053712BB2A3D12BB2A3E0F
:103C4000FFFFFF3EFFFF7F3FA2870300A687030021
:103C5000768703000000004B00007E4E0000A08528
:103C6000000000002DED020B019820F000400190B3
:103C70009DED000B02B070472DE9F04D2DED040BCA
:103C80002DED0E8B96B0DDE92550279CDDF890A038
:103C900025F0004624F00048BAF1000F14BF0121BE
:103CA000002101EB4502FC4953184A1093422AD3E4
:103CB000002814BF0123002303EB44030B44F749FE
:103CC0008B4220D358EA00019FEDF59B76D0DFF8B8
:103CD000D8B35D4503D1BAF1000F05D188E0BAF140
:103CE000000F08BF002100D0012101EB450111F5B3
:103CF000001F08D8002814BF0121002101EB440156
:103D000011F5001F0BD99DED261B9DED240B16B060
:103D100000F0DABD04B0BDE8F04D00F0E9BE0027C8
:103D2000002DBCBFE149884521DAE1498845A8BF9B
:103D300002271CDAC3451ADCDE4901EB285114299D
:103D400008DDC1F1340220FA02F101FA02F28242E6
:103D50000DD108E058B9C1F1140228FA02F101FAB4
:103D600002F2424503D101F00101C1F1020756EA16
:103D70000A0124D1002C22DA002D18BF022F01D015
:103D8000012F0AD0022000F013FF16B000F0A2BDF0
:103D900004B0BDE8F04D00F093BE022000F008FF33
:103DA00000F08EFE51EC100B81F0004141EC100B45
:103DB00016B000F095BD04B0BDE8F08D18E09FEDA1
:103DC000BEAB9FEDBF8B002871D1B848804522D192
:103DD00005F1804010F5801008BFBAF1000F07D040
:103DE000B3450ADC002CA8BF9DED260BE0DA0DE000
:103DF000B0EE490AF0EE690ADAE7002C06DA9DED2A
:103E0000260B51EC100B81F000416FE0AE48784476
:103E100090ED000BCCE7D8454DD1002C48DA2EB1FF
:103E200086423AD1BAF1000F42D126E0BAF1000F32
:103E300013D0022000F0BCFE00F076FE8DED020BE8
:103E40009DED240B8DED000B10EE900A039961F3AC
:103E50001E0003909DED020BAAE78DED02AB9DEDD8
:103E6000240B1AEE901A10EE900A8DED000B61F300
:103E70001E0003909DED020B9AE78DED028B9DEDE8
:103E8000240B18EE901A10EE900A8DED000B61F3E2
:103E90001E0003909DED020B8AE709DA9DED240BCD
:103EA00051EC190B53EC102BFCF725FB1EE020E026
:103EB0009DED240B7CE786421BDAB4F1804F0DD0D8
:103EC000A4F10050B0F1FF5013D1002D11DB9DED96
:103ED000240B51EC100B03F05CFB07E09DED240B71
:103EE00053EC102B51EC100B00F0C2BC41EC100B4A
:103EF0005EE79DED240B51EC100B02F084F9BAF152
:103F0000000FCDE90E0142D19FED710B46B3A6F132
:103F1000E040B0F17F600CD05E4538D1002D00DA72
:103F2000A7B3022F0CBF01204FF0FF30FCF752FB6C
:103F3000DCE7002D01DD002C0DDA002D01DD002C69
:103F40001FDB002D16DA002C14DB012F08BF9FEDBC
:103F5000620B3FF42DAFB0EE4A0AF0EE6A0A27E793
:103F6000022F18BF002D0CD0012F0AD1002DFFF613
:103F70001FAF06E0002DB8BF002C08DA012F3FF478
:103F800017AFB0EE480AF0EE680A11E71BE0012017
:103F900000EBE57050EA070115D0791EB0EE498AB2
:103FA000F0EE698A084308BF9FED4D8B4E4800250F
:103FB000804570DD4D494E48884514DDB0420DDB2B
:103FC000002C19DB2FE0012000F0F2FD16B000F00C
:103FD0008DBC04B0BDE8F04D00F096BDB34502DCE9
:103FE000002C09DC1FE0864202DA002C1BDA03E019
:103FF0005E452BDD002C16DD022000F0D9FD00F01F
:1040000093FD8DED020B53EC1A2B51EC180BFCF7C2
:10401000FDF9CDE900010399019861F31E000390B9
:104020009DED020BC4E6022000F0C2FD00F08CFD05
:1040300010EE901A18EE900A8DED020B8DED008BAC
:1040400061F31E0003909DED020BB1E69DED0E0B9A
:1040500053EC192B51EC100BFCF7CAF99FED260B12
:10406000CDE9080153EC102B9DED080B51EC100B22
:10407000FCF7CCF99FED221B53EC112BFCF7BBF99D
:104080009DED081B53EC112BFCF7C0F99FED1E1B97
:1040900053EC112B3CE08CE0FFFF1F00FFFF0F00F3
:1040A000000000000000F03F0000F03F0000F07F43
:1040B0000000404301FCFFFF000000000000F07F13
:1040C0000000000000000000368503000000000032
:1040D0000000000000000080000000000000F0FF71
:1040E000000000000000F0BF0000E0410000F043CD
:1040F000FFFFEF3F00000000000000000000D03F85
:10410000555555555555D53F000000000000E03F7E
:10411000FCF771F99DED080B41EC1A0B53EC102BD9
:1041200051EC100BFCF772F953EC1A2BFCF76EF9FB
:1041300041EC1A0B9FEDFE0B53EC102B9DED080B81
:1041400051EC100BFCF762F941EC1B0B9FEDFA0BE5
:1041500051EC1A0B53EC102BFCF758F941EC1A0BED
:104160009FEDF70B53EC102B9DED080B51EC100B52
:10417000FCF74CF953EC1A2BFCF73AF941EC1A0B0B
:1041800051EC1B0B53EC1A2BFCF791F80690CDE980
:1041900006519DED060B53EC1B2B51EC100BFCF75D
:1041A00027F953EC1A2BFCF726F941EC100B00F021
:1041B000A1B90020B6F5801F0EDA9FEDE30B53EC9A
:1041C000102B9DED0E0B51EC100BFCF71FF9CDE9F8
:1041D0000E016FF034000E4600EB2650A0F2FF37C0
:1041E000C6F31300DA4940F07F6646F04056884235
:1041F000D8BF002408DDD7498142C8BF012403DCB1
:104200000024A6F580167F1CD348784400EBC40038
:104210000F9690ED00CB9DED0E0B53EC1C2B51EC4B
:10422000100BFCF7E5F89DED0E0B41EC1B0B53EC6E
:104230001C2B51EC100BFCF73AF841EC100B51EC35
:10424000190B53EC102BFCF756F941EC1D0B51ECFC
:104250001B0B53EC1D2BFCF7D9F841EC1A0BBF4894
:104260008DED10AB7844109590ED000B4FF00050A1
:1042700040EA660000EB84408DED080B00F500205D
:1042800009909DED080B53EC1C2B51EC100BFCF727
:10429000AFF89DED0E1B53EC112BFCF7ACF841EC85
:1042A000100B53EC102B9DED100B51EC100BFCF789
:1042B000ADF89DED080B41EC1C0B53EC102B9DED64
:1042C000100B51EC100BFCF7A1F853EC1B2BFCF777
:1042D00092F853EC1C2BFCF78BF853EC1D2BFCF7DE
:1042E00095F841EC1C0B53EC1A2B51EC1A0BFCF714
:1042F0008DF841EC1B0B9A480621B0EE4B0AF0EE0C
:104300006B0A784400F035FBB0EE401AF0EE601A0C
:10431000B0EE41DAF0EE61DA53EC1B2B51EC1B0BE3
:10432000FCF774F853EC1D2BFCF770F89DED100BA7
:1043300041EC1B0B53EC1A2B51EC100BFBF7B7FFA6
:1043400053EC1C2BFCF762F853EC1B2BFBF7AFFF75
:104350009DED100B41EC1B0B53EC102B51EC100B93
:10436000FCF754F841EC1D0B9FED7FEB53EC1E2B3B
:10437000FBF79DFF53EC1B2BFBF799FF0890CDE952
:1043800008519DED080B53EC1E2B51EC100BFCF764
:104390002FF853EC1D2BFCF72BF853EC1B2BFCF7E1
:1043A0002AF89DED080B41EC1D0B53EC102B9DEDF5
:1043B000100B51EC100BFCF729F841EC1B0B53ECE4
:1043C0001A2B51EC1D0BFCF721F89DED080B41EC6D
:1043D0001A0B53EC102B51EC1C0BFCF717F853EC99
:1043E0001A2BFBF764FF41EC1A0B51EC1B0B53EC3F
:1043F0001A2BFBF75CFF0C90CDE90C519DED0C0BDB
:1044000053EC1B2B51EC100BFBF7F2FF53EC1A2B68
:10441000FBF7F1FF41EC1B0B9FED550B53EC102B01
:104420009DED0C0B51EC100BFBF7F0FF41EC1A0B60
:104430009FED510B51EC1B0B53EC102BFBF7E6FFE0
:1044400041EC1B0B9FED4E0B53EC102B9DED0C0B19
:1044500051EC100BFBF7DAFF53EC1B2BFBF727FF9C
:1044600041EC100B4848784400EBC40090ED001B71
:1044700051EC100B53EC112BFBF719FF41EC1B0B0C
:104480003846FCF7A7F8CDE9080153EC1B2B51EC9B
:104490001A0BFBF70CFF41EC100B3C48784400EB87
:1044A000C40090ED00CB51EC100B53EC1C2BFBF730
:1044B000FEFE9DED081B53EC112BFBF7F8FE06905A
:1044C000CDE906519DED080B53EC102B9DED060B2D
:1044D00051EC100BFBF78CFF53EC1C2BFBF788FF08
:1044E00053EC1A2BFBF784FF53EC1B2BFBF783FFDA
:1044F00041EC100B9DED261B53EC102B8DED001B9A
:1045000000959DED260B51EC100BFBF77FFF9DED09
:10451000000B41EC1A0B53EC102B9DED260B51ECCC
:10452000100BFBF765FF9DED061B53EC112B2FE0E5
:10453000000000604715F73FFE822B654715F73FE7
:1045400044DF5DF80BAE543E000000000000404325
:104550008E9803007AB60B00B2800300E08003005F
:10456000EA7F030000000000000000000000084097
:10457000000000E009C7EE3FFD033ADC09C7EE3F4B
:10458000F5015B14E02F3EBE767E0300307E030013
:10459000FBF73CFF53EC1A2BFBF789FE9DED060B56
:1045A00041EC1A0B53EC102B9DED000B51EC100B52
:1045B000FBF72CFFCDE90C019DED0C0B51EC1A0B18
:1045C00053EC102BFBF773FECDE902010C46AA4910
:1045D0008C422FDB611A084318D19DED0C0B53EC74
:1045E000102B9DED020B51EC100BFBF701FF41EC82
:1045F0001B0B9FEDA30B51EC1A0B53EC102BFBF78D
:1046000056FE53EC1B2BFCF721F82DD2022000F0B4
:10461000CFFA00F089FA10EE901A18EE900A8DED9C
:10462000020B8DED008B61F31E0003909DED020BDC
:10463000FFF7BEBB944A24F00041914214D3934942
:10464000214408437FF4EFAC9DED0C0B53EC102B91
:104650009DED020B51EC100BFBF7CAFE53EC1A2B2D
:10466000FBF7F4FF7FF6DFAC24F000408849894A6D
:10467000002601EB205182422BDA481C4FF48011B6
:1046800021FA00F02044844AC0F30A517A44A1F28E
:10469000FF3192ED000B814A8DED080BCA4020EAF4
:1046A0000202C0F3130040F48010C1F1140120FA9B
:1046B00001F60992002CB8BF76429DED080B53EC31
:1046C000102B9DED0C0B51EC100BFBF791FECDE97F
:1046D0000C019DED0C0B51EC1A0B53EC102BFBF75E
:1046E000E6FD9FED6F0B0890CDE9085153EC102BC0
:1046F0009DED080B51EC100BFBF788FE41EC1B0BFA
:104700009FED690B53EC102B9DED080B51EC100B3A
:10471000FBF77CFE9DED0C0B41EC1C0B53EC102BBE
:104720009DED080B51EC100BFBF762FE53EC1A2BBE
:10473000FBF761FE9FED5E1B53EC112BFBF766FE52
:1047400053EC1C2BFBF7B3FD41EC1A0B51EC1B0B8C
:1047500053EC1A2BFBF7ABFDCDE902019DED020BEB
:1047600053EC1B2B51EC100BFBF742FE53EC1A2BB6
:10477000FBF741FE9DED020B41EC1A0B53EC102BA5
:1047800051EC100BFBF742FECDE908014A489DEDC4
:10479000080B0521784400F0ECF89DED081B51EC66
:1047A000100B53EC112BFBF731FE9DED021B53EC6C
:1047B000112BFBF720FECDE906019DED020B53EC1A
:1047C0001A2B51EC100BFBF721FE53EC1A2BFBF7C5
:1047D0006EFD9FED3B0B41EC1A0B53EC102B9DED46
:1047E000060B51EC100BFBF703FE9DED060B41ECA5
:1047F0001B0B53EC102B9DED020B51EC100BFBF738
:1048000005FE53EC1B2BFBF776FE53EC1A2BFBF744
:10481000EFFD9DED021B53EC112BFBF7E9FD53EC73
:10482000192BFBF7E8FDCDE9020101EB065001155C
:104830000029C8BF039015DC9DED020B324651ECF8
:10484000100BFCF712F8FFF727F8042808BF00F058
:104850007BF932469DED020B51EC100BFCF705F88D
:10486000CDE902019DED020B51EC180B53EC102B1E
:10487000FBF7CCFDFFF73ABB0000904000000000C2
:10488000FE822B654715973C00CC904000346F3F6B
:1048900001FCFFFF0000E03FB87C0300FFFF0F00BA
:1048A00000000000432EE63F396CA80C615C20BE7E
:1048B000EF39FAFE422EE63F887B0300000000003D
:1048C0000000000000000040BDEC088BBDEC06CBF2
:1048D000FFF720BABDEC088BBDEC06CBFFF758BA4A
:1048E000BDEC088BBDEC06CBFFF765BABDEC088BC1
:1048F000BDEC06CBFFF76DBB00B52DED048BB0EE24
:10490000409AF0EE609A83B051EC190BFBF7C4FFAC
:1049100041EC180B18EE100A18EE901A8DED008B72
:10492000002818BF0120084320F00040C0F17F603C
:1049300000F1E040C00F14D019EE101A19EE900AE1
:104940008DED009B002918BF0121084320F0004095
:10495000C0F17F6000F1E040C00F04BF012000F013
:1049600027F9B0EE480A03B0F0EE680ABDEC048BFC
:1049700000BD70B504462DED028B4D1E00EBC50049
:10498000B0EE408AF0EE608A90ED000B35F0060044
:1049900017D053EC182B51EC100BFBF737FD41EC03
:1049A000100B6D1E04EBC50090ED001B51EC100BBD
:1049B00053EC112BFBF77BFC41EC100B35F00600A0
:1049C000E7D1022D36D0042D1CD0062D1CBFBDEC26
:1049D000028B70BD53EC182B51EC100BFBF716FD3E
:1049E00094ED0A1B53EC112BFBF761FC53EC182BD5
:1049F000FBF70CFD94ED081B53EC112BFBF757FC58
:104A000041EC100B53EC182B51EC100BFBF7FEFC98
:104A100094ED061B53EC112BFBF749FC53EC182BC0
:104A2000FBF7F4FC94ED040B53EC102BFBF73FFC6D
:104A300041EC100B53EC182B51EC100BFBF7E6FC80
:104A400094ED021B53EC112BFBF731FC53EC182BAC
:104A5000FBF7DCFC94ED001B53EC112BFBF727FC60
:104A6000BDEC028B41EC100B70BD00002DE9F0474E
:104A700082460F4C10480D4E0E4F001B4FF00008A1
:104A800020F007054FF0010900221146504601F0C1
:104A900097FF002802D1306810B10020BDE8F087F0
:104AA0003C60C4E90058C6F80090EDE7D40C002043
:104AB00014390020D00C002010410020000000001C
:104AC0009FED070B10B553EC102B9FED070B51EC2E
:104AD000100BFBF710FD41EC100B10BD00000000A7
:104AE0000000000000000000000000000000F03F97
:104AF00010B553EC112B51EC100BFBF7D8FB41EC2C
:104B0000100B10BD000000009FED050B10B553EC1D
:104B1000102B51EC100BFBF7EEFC41EC100B10BD11
:104B200000000000000000009FED050B10B553ECE5
:104B3000102B51EC100BFBF769FC41EC100B10BD76
:104B400000000000000000709FED050B10B553EC55
:104B5000102B51EC100BFBF759FC41EC100B10BD66
:104B6000000000000000001030EE000A7047000056
:104B70009FED020A20EE000A70470000000000705E
:104B80009FED020A20EE000A7047000000000010AE
:104B900002E008C8121F08C1002AFAD17047704706
:104BA000002001E001C1121F002AFBD17047000064
:104BB0000149086070470000D80C0020F0B5059D41
:104BC00025F0010403EB84069FED460AEF085AE046
:104BD00051F8044BD3ED002A04F0FF0C4FEA1C1EE1
:104BE00002EB8E0E0CF00F0C9EED002A02EB8C0CEB
:104BF00002EE220ADCED001A93ED012AC4F3072C21
:104C00004FEA1C1E02EB8E0E01EE820A9EED001A88
:104C1000D3ED021A0CF00F0C02EB8C0CD3ED042A2E
:104C200001EE210ADCED000A93ED031AC4F3074CF0
:104C30004FEA1C1E02EB8E0E00EE810A9EED002A4A
:104C40000CF00F0C02EB8C0C240EDCED001A02EEC3
:104C5000220A93ED052A4FEA141C02EB8C0C04F097
:104C60000F049CED001A01EE820AD3ED061A02EB46
:104C70008404D4ED000A01EE210A93ED071A2033D3
:104C80007F1E00EE810A002FA2D115E011F8014B22
:104C900093ED001A270902EB870704F00F04D7ED04
:104CA000000A02EB840400EE810AD4ED000A93EDC1
:104CB000011A083300EE810AB342E7D3EC0709D0AA
:104CC000097893ED001A090902EB8101D1ED000A80
:104CD00000EE810AD0ED000A30EE800A80ED000A75
:104CE000F0BD000000000000F0B59FED380A059D02
:104CF000EE0851E051F8044BD3ED002AE7B202EB85
:104D00008707D7ED001AC4F3072702EB870701EEE8
:104D1000A20A97ED002AD3ED011AC4F3074702EB6C
:104D20008707240E02EE210A97ED001AD3ED021A2E
:104D300002EB8404D3ED042AD4ED000A01EE210A2B
:104D400093ED031A51F8044BE7B202EB870700EE2C
:104D5000810A97ED002AC4F3072702EB8707D7EDF6
:104D6000001A02EE220A93ED052AC4F3074702EB6C
:104D70008707240E97ED001A01EE820AD3ED061A7A
:104D800002EB8404D4ED000A01EE210A93ED071A28
:104D90002033761E00EE810A002EABD105F0070409
:104DA0000BE000BF11F8015B641E02EB8505B3EC5C
:104DB000011AD5ED000A00EE810A002CF2D1D0EDE7
:104DC000000A30EE800A80ED000AF0BD000000000D
:104DD00010B54169044688472069A04200D10020EF
:104DE00010BD0120704700002DE9F04F002699B05A
:104DF0000F4605463446B0464CE0A868C4EBC403F1
:104E00008946426802EB83020E92806810AA00EB8A
:104E1000C40A2C480D9251F8082F406A120A62F316
:104E20001F200190D1F804B01C2105A8FBF727FA38
:104E3000D9F81800006800F00FFC0590D9F81800A8
:104E4000806806905FEA0A0009D0C0F80080D9F8AF
:104E50000010416029B1498819B1012102E04046A2
:104E600003E00021016001B900200790D9F8180083
:104E70001C2205A9406809900198CDE90A0B0D98FC
:104E8000FBF7D6F91C2210A90E98FBF7D1F9761C76
:104E9000B6B2641C0DB1288800E00020A04205D9FC
:104EA000686818B150F824100029A6D11EB1A8686E
:104EB0004068386001E0C7F8008019B0304600F063
:104EC00003B8000020C2030830BCBDE8C08F7047A3
:104ED000D3ED021A93ED000A93ED011AF5EEC01A14
:104EE00001EB8203F1EE10FA00EB82002AD2B5EE5C
:104EF000C01AF1EE10FA11D0001F1B1F8B4220D3F5
:104F0000D3ED000AF4EEC00AF1EE10FA03D870EE09
:104F1000C00A60EE810AC0ED000AEDE79FED161AA7
:104F20000BE000BFD3ED000AF4EEC00AF1EE10FA78
:104F300001D8F0EE410AC0ED000A001F1B1F8B4292
:104F4000F0D27047001F1B1F8B42FAD3D3ED000A2B
:104F5000F4EEE10AF1EE10FA09D8F4EEC00AF1EE2F
:104F600010FA06D870EEC00A60EE810A01E0F0EE99
:104F7000610AC0ED000AE5E700000000D3ED000A79
:104F80009FED0B1A01EB820300EB8200001F1B1F39
:104F90008B420BD393ED000AB4EEE00AF1EE10FA67
:104FA00001D8B0EE410A80ED000AEFE7704700003B
:104FB000000000002DE9F0479946DDE908870C461E
:104FC000054601EB820608E04A462146284600F0E5
:104FD00009F804EB880405EB8705B442F4D3BDE877
:104FE000F08700002DE9F04107462DED028B1546B4
:104FF0000E4691ED008ADFED208A01200CE000BF13
:1050000006EB800191ED000AB4EEC80AF1EE10FA49
:1050100001D3B0EE408A401CA842F1D300240EE038
:1050200006EB840090ED000A30EE480AFEF726FDFC
:1050300007EB840070EE288A80ED000A641CAC4205
:10504000EED3F5EEC08AF1EE10FA10D0F7EE000ABA
:10505000002080EEA80A08E007EB8001401CD1ED9B
:10506000000A60EE800AC1ED000AA842F4D3BDEC4C
:10507000028BBDE8F08100000000000070B505461D
:105080000C4648886988884202D9AAB1002070BDC0
:1050900092B100260CE000BF6168C6EBC6006A68EA
:1050A00001EB800102EB80001C22FBF7C1F8761CAB
:1050B0006088B042F0D801E060686860608868800D
:1050C00020882880012070BD30B500B3F9B1F2B15D
:1050D0005268E2B10F4C1368A34203D00260012969
:1050E00013D014E00023121D07E000BF52F8235034
:1050F000A54204D040F823505B1C8B42F6D38B4270
:1051000005D152F82300A04201D1012030BD00207A
:1051100030BD0000DECAFAA170B50D460600144687
:105120001AD0CCB1104600F03DFB00B16088A84217
:1051300012D10023042109E0C3EBC302606801EB34
:105140008202805820B146F823005B1CAB42F3D3A7
:10515000AB4201D1012070BD002070BD03498842DF
:1051600001D101207047002070470000DECAFAA17B
:105170002DE9FE4F92468946040003D0A08D20B150
:10518000256B03E0002000F0FBB800250020E08242
:10519000A082207BC043800702D030221121DCE0B6
:1051A000B9F1000F61D0D5B32888C0B3D9F8180081
:1051B0000026D0F8008056E0A868006800EB0610D2
:1051C000019052D058B3C6EBC600029009EB8000A4
:1051D0000121009000F0F0FADBF81830596888429D
:1051E0001AD80098DBF80C208069D768D0F80CC07A
:1051F000674511D19768D0F808C067450CD152684F
:105200004068824208D1186800F016FA07465846EE
:1052100001F094FB874203D2182212219DE024E082
:10522000DBF81800006800F017FA029920F07E42BF
:1052300059F8210020F07E40824201D01922ECE78B
:105240000098406888B100988069006878B141464C
:10525000404500D208468046DDE900105A4600F07D
:1052600092F8761C2DB1288804E01722D5E7212278
:10527000D3E70020B04206D9686820B150F826B0C4
:10528000BBF1000F98D1BAF1000F74D0A08D0128A6
:1052900006D9256B0C3503D0288808B1002658E0C4
:1052A000182259E0A868006800EB061B3BD0BBF150
:1052B000000F38D0C6EBC60001900AEB8000012138
:1052C000009000F079FAD9F8183059688842E7D888
:1052D0000098D9F80C208069D768D0F80CC06745D1
:1052E000DED19768D0F808C06745D9D152684068C8
:1052F0008242D5D1186800F09FF90746484601F070
:105300001DFB8742CCD3D9F81800006800F0A4F93F
:1053100020F07E4201985AF8200020F07E40824220
:1053200003D0192218E0172216E0009840680028E0
:10533000F9D000988069006868B14146404500D2C4
:10534000084680464A465846009900F01CF8761CEC
:105350003DB1288806E021221321204600F06CFE92
:1053600010E70020B04206D9686820B150F82690B6
:10537000B9F1000F96D1A4F814804FF0010002E7B4
:105380001EBCBDE8E08F70B504460E4615461046BB
:1053900001F0D4FA0146A060B06900684843E060BB
:1053A00071686160726810442060A86902689200A8
:1053B00007D4D0E90223D21A11448160A969606838
:1053C000C86070BD70B50646002521E0B068006871
:1053D00000EB051488690268920005D58168A2680F
:1053E000606802F0EBFA08E0D0E90223D21A6368A1
:1053F0001A44826089696068C860D4E90101084480
:1054000060602168884201D3E068081A6D1C606002
:105410000EB1308800E00020A84206D9706800284C
:1054200003D050F825100029D0D170BD2DE9F041EE
:105430000646002529E0B1688369096801EB051477
:1054400019688900D4E901120DD5986802F0B6FAFE
:10545000D4E90101084460602168884201D3E06812
:10546000081A606010E00A44626021688A4201D331
:10547000E2688A1A62608169D1E90237DB1B1A444B
:105480008A6080696168C1606D1C0EB1308800E07F
:105490000020A84206D97068002803D050F82500E3
:1054A0000028C8D1BDE8F0812DE9FF4F89B09B46A7
:1054B0000446002506E025280BD05A460B99904754
:1054C000641C6D1C20780028F5D10DB0284600F032
:1054D00095B80027B8460122474900E0074314F871
:1054E000013F203B02FA03F00842F7D120782E2832
:1054F00019D114F8010F47F004072A280ED06FF0D5
:105500002F022078A0F1300109290CD808EB88017E
:1055100002EB410100EB0108641CF2E70A98641CED
:1055200050F8048B0A9020780028CED0642808D048
:10553000692806D075281ED05A460B9990476D1CD5
:1055400058E00A994FF00A0901C90A91002802DAC5
:1055500040422D2102E0390504D52B218DF8201081
:10556000012103E0F90704D02021F7E78A4608AEBD
:105570000DE00021FAE70A994FF00A0901C90A91E2
:10558000F7E74946FBF796F8303106F8011D002889
:10559000F7D1ADEB060000F12009780701D44FF0F8
:1055A0000108C84502DDA8EB090000E000208046A4
:1055B000002706E008A85A46C05D0B9990476D1C6D
:1055C0007F1C5745F6DB04E030205A460B99904784
:1055D0006D1CB8F10001A8F10108F5DC05E016F832
:1055E000010B5A460B9990476D1CB9F10001A9F1C6
:1055F0000109F4DC641C65E70928010030BCBDE842
:10560000C08F79B1C0F3C6125143C91DC0F34153D5
:1056100021F00701D940C0F34340042804D00828F2
:1056200007D104E00020704701EB021101E001EB1B
:105630000221C91DC808704759B1C0F3C6125143B1
:10564000C91D21F00701C0F34150C140C91DC80860
:10565000704700207047000070B54021C0F34342FE
:10566000022A1BD0394A20F07E439C1A0D014E01BC
:1056700093425FD029DC364AA3EB0204934259D00F
:1056800019DC402B57D0403BB3F580234CD0802B06
:1056900037D0AB424FD12E49C91F4CE0C0F3C051A7
:1056A000C905C0F3C61241EAC21100F07F021143DE
:1056B00041F480213FE0A4F54074F93C1FD00F2C49
:1056C00035D0B44237D1234935E0234BE21A9C420E
:1056D0001BD00BDC214AA2181DD0802A19D0AA4267
:1056E00011D0A2F58062073A25D117E00F2A18D011
:1056F000B2420CD01A4BDA421DD11A491BE01A49AA
:1057000019E01A4917E01A4915E01A4913E01A4935
:1057100011E01A490FE0194980390CE01449C91DFC
:1057200009E014490F3106E01049803903E00E49C1
:105730000F3100E0114600F080420A4300F00051B2
:10574000114300F00060084370BD000040040600F3
:10575000470404004010040000047E00000482FF9F
:1057600000F801FF4010820140080400C00004005E
:10577000400484004008840040108400C00084007D
:1057800070B514460D46064600F00CF840B170683E
:10579000C5EBC50110EB810002D04460012070BD53
:1057A000002070BD28B1416819B1408808B10120BE
:1057B000704700207047000010B502002AD0164B39
:1057C0001068B3EBC01F03D0144BB3EBC01F01D163
:1057D000012000E0002008429069406802D01F309C
:1057E00020F01F005369D9B2012900D000211C0A02
:1057F00007E0012907D0936953F821305843491C29
:105800001AB1234602E00123F8E700238B42F0DCC3
:10581000002800DC002010BD006000420060000293
:1058200008B509A10968009148B101789DF80020E8
:10583000914204D104226946FAF72CFD08B10020F8
:1058400008BD012008BD0000038404842DE9FF4F3A
:105850002DED020B82B0DDE91609DDE913E800FB4E
:1058600008F0584302EB800A0027DDF848B0189C86
:10587000A7E06242002A00DC0022ABEB04054545AC
:1058800000D34546A0180599584301EB800102FB5F
:1058900003F0AA1AABEB02055D430195A8EB0205E4
:1058A0005D4300950AEB800003FB02F5F0EE400A31
:1058B000002679E0002225F00F0C62E091ED004A0D
:1058C000D0ED004A91ED013A90ED011A44EE840AC0
:1058D000D1ED023AD0ED022A91ED032AD0ED031A60
:1058E00091ED044A41EE030AD0ED044A90ED063AE8
:1058F00090ED071A42EEA30AD1ED053AD1ED062A42
:1059000041EE820A90ED052AD1ED071A44EE840A91
:10591000D1ED084A90ED084A42EE230AD0ED093A4B
:1059200091ED0A2A43EE220A91ED093AD0ED0A2AB6
:1059300041EE210A91ED0B1AD0ED0B1A44EE240A28
:1059400091ED0C4AD0ED0C4A43EE830A91ED0D3AED
:10595000D0ED0D3A42EE820AD0ED0E2A91ED0F2ADB
:1059600041EE810A91ED0E1AD0ED0F1A4030403110
:10597000103244EE840A43EE830A42EE810A41EE7D
:10598000820A94459ADC06E0B0EC011A521CF1EC54
:10599000011A41EE210AAA42F6DB019A761C01EBBC
:1059A0008201009A00EB82004E4583DB04987F1C45
:1059B000C0ED000A1199049800EB81000490199839
:1059C00004447745FFF455AF08B000F000B830BC90
:1059D000BDE8C08FF0B5042BDDE9055400EB84046D
:1059E00027D0082B27D12FE000236E0812E00F7874
:1059F0003F0902EB870797ED000A80ED000A11F8D6
:105A0000017B07F00F0702EB870797ED000A80ED97
:105A1000010A08301F465B1CB742E8D3EB0708D0E9
:105A200011F8013B1B0902EB830393ED000AA0EC84
:105A3000010AA042D8D3F0BD11F8013B02EB830369
:105A400093ED000AA0EC010AA042F5D3F0BD2DE9C8
:105A5000F041C66B416B044600258163CEB1D9B1DC
:105A60000120226CB0470CE00220226CB047A06BF2
:105A7000FFF7AEF907460320226CA16BB0476D1CFF
:105A8000A763A16B0029EFD106E0FFF7A1F96D1C18
:105A9000A063A06B0028F8D12846BDE8F08103463A
:105AA0000020596B002908D0CB600A69401C8A424B
:105AB00003D0002A01D01146F6E770472DE9F041E6
:105AC000446B002594B1012600272079C00707D038
:105AD000216A204611B18847304600E03846054427
