:020000040800F2
:1000000068340020A5010008812C0008272700087B
:100010007D2C0008C10700081D3500080000000005
:10002000000000000000000000000000AD2E0008ED
:10003000C507000800000000852C0008AF2E00084E
:10004000BF010008BF010008BF010008BF01000890
:10005000BF010008BF010008BF010008C707000872
:10006000BF010008BF010008BF010008BF01000870
:10007000BF010008BF010008BF010008BF01000860
:10008000BF010008BF010008BF010008BF01000850
:10009000BF010008BF010008BF010008BF01000840
:1000A000BF010008BF010008BF010008BF01000830
:1000B000BF0100080000000000000000BF010008B0
:1000C000BF0100080000000000000000BF010008A0
:1000D00000000000BF0100080D350008000000000E
:1000E000BF010008BF010008000000000000000080
:1000F0000000000000000000000000000000000000
:10010000000000000000000000000000BF01000827
:100110000000000000000000BF010008BF0100084F
:10012000BF010008BF010008BF010008BF010008AF
:10013000BF010008000000000000000000000000F7
:10014000BF010008BF010008BF010008BF0100088F
:10015000BF010008BF010008BF010008BF0100087F
:10016000BF010008BF010008BF0100080000000037
:10017000BF010008BF0100080000000000000000EF
:10018000BF010008BF010008BF010008DFF810D060
:1001900000F004FB004800475D440008AFF3008016
:1001A000683400200648804706480047FEE7FEE71F
:1001B000FEE7FEE7FEE7FEE7FEE7FEE7FEE7FEE717
:1001C000312F00088D0100082DE9F05F0546002061
:1001D00092469B4688460646814640241BE02846B8
:1001E00041464746224600F042FA53465A46C01A54
:1001F000914110D311461846224600F029FA2D1AD3
:1002000067EB01084F4622460120002100F020FA4A
:1002100017EB00094E41201EA4F10104DFDC484623
:1002200031462A46434600F000B830BCBDE8C09FC6
:10023000D2B201E000F8012B491EFBD27047002228
:10024000F6E710B513460A4604461946FFF7F0FFD5
:10025000204610BD2DE9FE4F804681EA0300C00F05
:100260000C46009021F0004123F00045B8EB02005D
:10027000A94105D24046214690461C460B460246FF
:1002800023F00040104347D0270DC7F30A00C3F303
:100290000A510290401A019040286BDAC3F3130010
:1002A00040F4801B0098924620B10023D2EB030A51
:1002B00063EB0B0B01985946C0F14002504600F029
:1002C000C7F906460D4650465946019A00F0DFF937
:1002D00010EB08006141002487EA115284EAE773B9
:1002E0001A4340D0009A62B3019A012A4FEA07529A
:1002F00015DC001B61EB02014FF0004202EA0752DD
:10030000CDE90042001C41F5801132462B4600F039
:10031000DFF903B000F045B840462146F9E7001B7D
:1003200061EB0201001C41F5801300185B412018AD
:10033000A2F5001747EB030140EAD570B6196D41ED
:1003400011E06D084FEA360645EAC0754FEA0752DC
:10035000001B61EB0201001C41F5801149084FEAC6
:1003600030000019514132462B4603B000F01CB852
:1003700000F09FB90098012240000023D0EB020258
:1003800063EBE073009821464FEAE074B8EB00009D
:1003900061EB0401E9E783F000435BE781F0004192
:1003A00058E730BCBDE8C08F30BCBDE8C04FFFF798
:1003B000DFBF2DE9FE4F81EA030404F0004421F081
:1003C000004100944FF0000B23F0004350EA010479
:1003D0005ED052EA03045BD0C3F30A54C1F30A555A
:1003E0002C44A4F2F3340194A0FB0254C1F3130192
:1003F00041F48011C3F3130343F4801301FB02445F
:1004000000FB034E840A970A44EA815447EA835763
:10041000A4FB076802958D0A05FB07854FEA932C1C
:1004200004FB0C542705029D4FEA065847EA16378D
:10043000B5EB08056EEB070C870E920E47EA8117A5
:1004400042EA8312A7FB0201B6EB0B0164EB000446
:100450002B0D43EA0C335E1844EB1C50DA46514630
:10046000E7FB0201C5F313044FEA0B3343EA1453CD
:100470004FEA0432019C43EA0603A4F10C040294FF
:10048000009CCDE900B400F023F903B000F003B8FC
:1004900000200146F9E730BCBDE8C08F2DE9F04DE2
:1004A00081EA030404F0004B21F0004514464FF0AC
:1004B000000A23F0004150EA050220D054EA01026C
:1004C0001DD0C5F30A570246C5F31303C1F3130049
:1004D000C1F30A5640F4801543F48013A7EB0608D5
:1004E000101BD64608F2FD3873EB050002D308F165
:1004F000010801E092185B41B8F1000F03DA002017
:100500000146BDE8F08D00204FF480110646844678
:100510000EE0171B73EB050705D3121B63EB0503F6
:1005200006434CEA010C49084FEA300092185B413F
:1005300050EA0107EDD152EA030012D082EA04002A
:1005400083EA0501084305D0101BAB4106D2012206
:10055000002306E000224FF0004302E06FF00102AA
:1005600053101AEB06004CEB085110EB0A0041EB5C
:100570000B01BDE8F04D00F09CB80EB5C10F80EA4C
:10058000E0700844CA07002140F233438DE80E00B2
:100590000A460B4600F09CF803B000BD00F0004294
:1005A00030F000400AD0C10D01F56071C0F31600B3
:1005B00042EA0151C208400711437047002001463A
:1005C0007047000030B5041E71F1000404DB4FF0E9
:1005D0000044404264EB0101141E73F1000405DB8A
:1005E0001C464FF00043524263EB04038B4208BFAA
:1005F000824230BD30B5041E71F1000404DB4FF0BF
:100600000044404264EB0101141E73F1000405DB59
:100610001C464FF00043524263EB0403994208BF6B
:10062000904230BD30B50B46014600202022012407
:1006300009E021FA02F59D4205D303FA02F5491BB0
:1006400004FA02F52844151EA2F10102F1DC30BDC6
:10065000202A04DB203A00FA02F100207047914082
:10066000C2F1200320FA03F3194390407047202A77
:1006700004DB203A21FA02F00021704721FA02F34C
:10068000D040C2F120029140084319467047202A09
:1006900006DBCB17203A41FA02F043EAE07306E0AA
:1006A00041FA02F3D040C2F12002914008431946BA
:1006B000704710B5141E73F1000408DA401C41F1B4
:1006C000000192185B411A4301D120F0010010BDD6
:1006D0002DE9F04D92469B4611B1B1FA81F202E04C
:1006E000B0FA80F220329046FFF7B2FF04460F4680
:1006F00040EA0A0041EA0B0153465A46084313D028
:10070000114653EA010019D0C8F140025046FFF7E4
:10071000AEFF05460E46504659464246FFF798FF43
:10072000084305D0012004E020463946BDE8F08D9D
:100730000020054346EAE0762C4337430A986305D8
:10074000E40AA0EB08000022FD0A44EA47540A30FC
:1007500002D500200146E9E7010510196941DDE9EC
:10076000084500196941BDE8F04DA2E7C1F30A52FE
:10077000C1F3130140F2FF3341F480119A4202DACF
:1007800000200146704740F233439A42A2F23342BE
:1007900002DC5242FFF76BBFFFF75ABF064C074D12
:1007A00006E0E06840F0010394E807009847103441
:1007B000AC42F6D3FFF7EEFC9C8D0008BC8D000820
:1007C00000BFFEE7704710B5022000F00FF910BD22
:1007D00072B600BFFEE770B503460C4600201F212D
:1007E00000BF0D1EA1F1010106D001F01F06012579
:1007F000B5402540002DF4D08AB1082A0BD0102A2C
:1008000005D0182A0CD1072900D301200AE00829B5
:1008100000D3012006E0102900D3012002E001E00E
:10082000012000BF00BF40B91D686C611D68AD6844
:1008300025F0180515431E68B56070BD10B5044657
:100840000CB9012010BD607F20B900202077204620
:1008500000F036F802206077207948B917482168FF
:1008600048612068806820F018002168886007E0EF
:100870002046D4E90212FFF7AEFF08B10120E1E7FC
:10088000607920B94FF0FF302168086102E02168EB
:10089000206908612068806820F060006169084371
:1008A000216888602068806820F08000A169084382
:1008B00021688860012060770020C3E7B71DC1046C
:1008C00008B5094A016891420DD100BF0749896CFA
:1008D00041F48051054A91641146896C01F48051BC
:1008E000009100BF00BF08BD003002400010024070
:1008F0000146002291F82500022808D00420C86390
:1009000000BF002081F8240000BF01207047086864
:10091000006820F00E000B6818600868006820F07E
:1009200001000B68186091F8440000F01C030120DE
:1009300098400B6C5860012081F8250000BF002012
:1009400081F8240000BF1046E0E770B5044600259A
:1009500094F82500022803D00420E063012520E05C
:100960002068006820F00E00216808602068006898
:1009700020F001002168086094F8440000F01C0198
:1009800001208840216C4860012084F8250000BFC8
:10099000002084F8240000BFA06B10B12046A16B9A
:1009A0008847284670BD000070B5044600F0FEF888
:1009B00006462546681C10B104480078054400BF6F
:1009C00000F0F4F8801BA842FAD370BDC0000020EC
:1009D000022804D103490968491C024A11600249EE
:1009E00008607047400000201404014010B5044620
:1009F00004480068204020B1024804602046FFF708
:100A0000E7FF10BD1404014078B503460A460021F3
:100A1000BBE001268E40156805EA0604002C73D061
:100A2000157905F00305012D04D0157905F00305AE
:100A3000022D13D198684E000325B540A8434E00FF
:100A4000D568B54028439860586801258D40A84373
:100A50001579C5F300158D4028435860157905F0C8
:100A60000305032D09D0D8684E000325B540A843DF
:100A70004E009568B5402843D860157905F0030508
:100A8000022D13D1CE0803F1200555F826004D079D
:100A9000EE0E0F25B540A8434E07F60E1569B5407A
:100AA0002843CE0803F1200545F8260018684E00BB
:100AB0000325B540A843157905F003054E00B54060
:100AC00028431860556805F44035002D5CD000BF00
:100AD000314D2D6E45F001052F4E356635462D6E94
:100AE00005F00105009500BF00BF4FEAB6358E083E
:100AF00055F826008D072E0F0F25B540A843B3F1FA
:100B0000904F02D100250BE03EE0244DAB4201D1D5
:100B1000012505E0224DAB4201D1022500E0072569
:100B20008E07360FB54028431E4D8E0845F8260027
:100B30001D4D2868A043556805F4801505B1204374
:100B4000194D28602D1D2868A043556805F400152F
:100B500005B12043144D2D1D2860134D2D1F28680D
:100B6000A043556805F4003505B120430E4D2D1FF7
:100B700028602D1F2868A043556805F4803505B10D
:100B80002043094D083D2860491C1568CD40002DC3
:100B90007FF43FAF78BD0000001002400004004821
:100BA00000080048080001400804014001480068AE
:100BB00070470000B8000020024692F8410020284B
:100BC0002DD100BF92F84000012801D102207047CA
:100BD000012082F8400000BF242082F84100106804
:100BE000006820F00100136818601068006820F4A5
:100BF0008050136818601068006808431368186014
:100C00001068006840F0010013681860202082F826
:100C1000410000BF002082F8400000BFD7E702205B
:100C2000D5E710B502460B4692F8410020282AD19C
:100C300000BF92F84000012801D1022010BD012020
:100C400082F8400000BF242082F84100106800684C
:100C500020F00100146820601068016821F47061C0
:100C600041EA0321106801601068006840F001004B
:100C700014682060202082F8410000BF002082F824
:100C8000400000BFDAE70220D8E7000010B50446B4
:100C90000CB9012010BD94F8410028B9002084F857
:100CA0004000204600F0F8F9242084F84100206834
:100CB000006820F0010021680860606820F0706022
:100CC000216808612068806820F4004021688860FD
:100CD000E068012805D1A06840F4004021688860E0
:100CE00004E0A06840F4044021688860E0680228BD
:100CF00002D1800221684860206840681349084397
:100D0000216848602068C06820F400402168C860FD
:100D1000D4E904010843A16940EA01202168C860C0
:100D2000D4E907010843216808602068006840F0A2
:100D300001002168086000206064202084F84100E0
:100D40000020206384F8420000BFA3E70080000277
:100D50002DE9FC5F0446894692469B46DDE90C7806
:100D60000E9E94F8410020287ED117B1B8F1000FF3
:100D700005D14FF400706064012000F0B9B800BFE5
:100D800094F84000012801D10220F6E7012084F800
:100D9000400000BFFFF70AFF054619230122D103D7
:100DA0002046009501F016FE08B10120E5E722205B
:100DB00084F84100402084F84200002060646762AB
:100DC000A4F82A8060635B46524649462046CDE936
:100DD000006501F067FD30B100BF002084F84000DD
:100DE00000BF0120C9E7608DFF280CD9FF202085B6
:100DF0003D48009094F828204FF0807349462046E3
:100E000001F0CCFD0BE0608D20853748009094F810
:100E100028204FF000734946204601F0BFFD00BF77
:100E20003346002204212046009501F0D3FD08B18D
:100E30000120A2E72068406A616A0870606A401C6D
:100E40006062208D401E2085608D401E6085608D13
:100E500048B3208D38BB33460022802120460095C0
:100E600001F0B8FD18B100E03CE0012085E7608D9D
:100E7000FF280CD9FF2020850020009094F828201E
:100E80004FF080734946204601F088FD0BE0608DED
:100E900020850020009094F828204FF000734946E8
:100EA000204601F07BFD608D0028B9D12A463146ED
:100EB000204601F0BEFD08B101205EE72020216838
:100EC000C8612068406809490840216848602020BE
:100ED00084F84100002084F8420000BF84F84000FC
:100EE00000BF4AE7022048E70024008000E800FE37
:100EF0003CBCBDE8C09F00002DE9FC5F044689466C
:100F000092469B46DDE90C780E9E94F8410020281D
:100F10007DD117B1B8F1000F05D14FF400706064B6
:100F2000012000F0B5B800BF94F84000012801D1BD
:100F30000220F6E7012084F8400000BFFFF736FEEC
:100F4000054619230122D1032046009501F042FDF8
:100F500008B10120E5E7212084F84100402084F811
:100F60004200002060646762A4F82A8060635B46E8
:100F7000524649462046CDE9006501F0D1FC30B12A
:100F800000BF002084F8400000BF0120C9E7608D49
:100F9000FF280CD9FF2020850020009094F82820FD
:100FA0004FF080734946204601F0F8FC0BE0608D5D
:100FB00020850020009094F828204FF000734946C7
:100FC000204601F0EBFC00BF2A463146204601F0E6
:100FD0005BFD08B10120A4E7606A0078216888629F
:100FE000606A401C6062608D401E6085208D401EDE
:100FF0002085608D40B3208D30BB33460022802198
:101000002046009501F0E6FC10B1012089E73AE0A6
:10101000608DFF280CD9FF2020850020009094F8D7
:1010200028204FF080734946204601F0B7FC0BE0C2
:10103000608D20850020009094F828204FF00073E8
:101040004946204601F0AAFC608D0028BCD12A4602
:101050003146204601F0EDFC08B1012061E7202077
:101060002168C861206840680849084021684860D4
:10107000202084F84100002084F8420000BF84F85A
:10108000400000BF4DE702204BE7000000E800FEF3
:101090003CBCBDE8C09F000010B59CB004461421C4
:1010A00017A8FFF7CCF8542102A8FFF7C8F8484961
:1010B0002068884235D14020029000200D9002A87F
:1010C00000F0AEF908B1FFF783FB00BF4148C06CE8
:1010D00040F001003F49C8640846C06C00F00100C0
:1010E000019000BF00BF4FF4C0601790122018900D
:1010F0000020199003201A9004201B9017A94FF08C
:101100009040FFF781FC00BF3248806D40F4001032
:10111000304988650846806D00F40010019000BFDA
:1011200053E02D49206888424FD18015029000205D
:101130000E9002A800F074F908B1FFF749FB00BF58
:101140002448C06C40F001002249C8640846C06CC5
:1011500000F00100019000BF00BF00BF0846C06C56
:1011600040F00200C8640846C06C00F00200019024
:1011700000BF00BF80201790122018900020199007
:1011800003201A9004201B9017A94FF09040FFF7FE
:101190003BFC10201790122018900020199003207B
:1011A0001A9004201B9017A90C48FFF72DFC00BFD4
:1011B0000848806D40F40000064988650846806D47
:1011C00000F40000019000BF00BF1CB010BD000083
:1011D0000054004000100240005C00400004004841
:1011E00003480068034909780844014908607047CA
:1011F000B8000020C000002010B50024032000F03B
:10120000ADF8002000F008F808B1012401E000F07A
:101210002FF8204610BD000070B504460025114887
:101220000078D8B10F4800784FF47A71B1FBF0F034
:101230000D490968B1FBF0F6304600F0B9FF58B926
:10124000102C07D200222146501E00F045F8074816
:10125000046004E0012502E0012500E001252846A4
:1012600070BD0000C0000020C4000020BC000020B1
:1012700008B500BF0D48006E40F001000B4908663C
:101280000846006E00F00100009000BF00BF00BFE4
:101290000846806D40F0805088650846806D00F0FB
:1012A0008050009000BF00BF08BD00000010024049
:1012B0000146084600280DDB00BF00BF00F01F03F9
:1012C00001229A4043099B0003F1E023C3F8002167
:1012D00000BF00BF00BF70472DE9F05F80460D469C
:1012E0001646002702F02CF9074639462A463346AF
:1012F00001F00700C0F1070ABAF1040F02D94FF05C
:10130000040A01E0C0F1070AD14600F1040ABAF16B
:10131000070F02D24FF0000A01E0A0F1030AD44601
:101320004FF0010A0AFA09FAAAF1010A0AEA020AC6
:101330000AFA0CFA4FF0010B0BFA0CFBABF1010BA4
:101340000BEA030B4AEA0B042146404602F000F97F
:1013500000F000B830BCBDE8C09F000000BF00F046
:101360000702064B19684FF6FF031940044B0B4365
:1013700043EA0221014B196000BF70470CED00E009
:101380000000FA050246B2F5007F2AD11D48006828
:1013900000F4C060B0F5007F32D01A48006820F435
:1013A000C06040F40070174B186017480068322383
:1013B0005843164BB0FBF3F0411C00E0491E1148A6
:1013C000406900F48060B0F5806F01D10029F5D14B
:1013D0000C48406900F48060B0F5806F10D10320A4
:1013E00070470848006800F4C060B0F5806F07D00F
:1013F0000448006820F4C06040F48060014B18602D
:101400000020EDE700700040C400002040420F00C3
:101410000248006800F4C06070470000007000409F
:101420002DE9F84304460025A846208800F4006012
:10143000B0F5006F26D1E06B68B1B0F5000F03D0B6
:10144000B0F5400F0ED10CE0C648C06840F48030C3
:10145000C449C86008E00021201D01F015FC0546C4
:1014600002E001E0012500BF00BF55B9BD4888304A
:10147000006820F44000E16B0843BA49C1F88800D5
:1014800000E0A846206800F40030B0F5003F75D1B8
:101490004FF00009B348806D012121EA107078B146
:1014A00000BFB048806D40F08050AE498865084666
:1014B000806D00F08050009000BF00BF4FF0010928
:1014C000A948006840F48070A7490860FFF76EFBE8
:1014D000074606E0FFF76AFBC01B022801D9032577
:1014E00005E0A148006800F480700028F2D000BF39
:1014F0007DBB9C489030006800F44076CEB1206DF2
:10150000B04216D097489030006820F44076954855
:10151000D0F8900040F480309249C1F8900008461D
:10152000D0F8900020F48030C1F890000846C0F850
:10153000906006F00100A8B1FFF738FB074609E00C
:10154000FFF734FBC01B41F28831884202D90325E2
:1015500007E016E083489030006800F002000028A1
:10156000EED000BF5DB97F489030006820F4407035
:10157000216D08437B49C1F8900003E00CE0A846C8
:1015800000E0A846B9F1010F05D17648806D20F042
:1015900080507449886500BF207800F0010048B190
:1015A00070488830006820F00300216A08436D49C4
:1015B000C1F88800207800F00200022809D16948AB
:1015C0008830006820F00C00616A08436549C1F862
:1015D0008800207800F02000202809D16148883058
:1015E000006820F44060A16A08435E49C1F88800A1
:1015F000208800F40070B0F5007F09D15948883088
:10160000006820F44020616B08435649C1F8880007
:10161000208800F48060B0F5806F09D1514888308F
:10162000006820F44010A16B08434E49C1F88800BF
:10163000207800F04000402809D14A4888300068EE
:1016400020F44050E16A08434649C1F888002088E8
:1016500000F48070B0F5807F09D14248883000687E
:1016600020F44030216B08433E49C1F888002088AF
:1016700000F40050B0F5005F1FD13A488830006890
:1016800020F04060216C0843364988310860206CA6
:10169000B0F1006F06D13348C06840F48010314982
:1016A000C8600AE0206CB0F1806F06D10121201DD6
:1016B00001F0EAFA054605B1A846206800F480204A
:1016C000B0F5802F1FD127488830006820F0406097
:1016D000616C0843234988310860606CB0F1006F89
:1016E00006D12048C06840F480101E49C8600AE056
:1016F000606CB0F1806F06D10121201D01F0C4FAA9
:10170000054605B1A846208800F48040B0F5804F1A
:1017100014D114488830006820F04050A16C084370
:10172000104988310860A06CB0F1805F06D10221B9
:10173000201D01F0A9FA054605B1A846208800F44D
:101740000040B0F5004F09D106488830006820F00D
:101750008040E16C08430349C1F888004046BDE879
:10176000F883000000100240007000402DE9F041B5
:1017700004460D4614B90120BDE8F08163480068B5
:1017800000F00700A8420ED26048006820F0070071
:1017900028435E4908600846006800F00700A84238
:1017A00001D00120E8E7207800F0020002280ED1E5
:1017B0005749A068896801F0F001884207D9544868
:1017C000806820F0F000A1680843514988602078C3
:1017D00000F0010078B36068032806D14C48006827
:1017E00000F00070D8B90120C6E76068022806D171
:1017F0004748006800F4003088B90120BCE7606801
:1018000030B94348006800F0020040B90120B3E756
:101810003F48006800F4806008B90120ACE73C480C
:10182000806820F003006168084339498860FFF749
:10183000BDF9064609E010E0FFF7B8F9801B41F258
:101840008831884201D9032096E73148806800F04A
:101850000C006168B0EB810FEED1207800F002003F
:1018600002280ED12A49A068896801F0F001884257
:1018700007D22748806820F0F000A1680843244977
:1018800088602248006800F00700A8420ED91F486F
:10189000006820F0070028431C49086008460068DB
:1018A00000F00700A84201D0012065E7207800F091
:1018B0000400042807D11648806820F4E060E1683D
:1018C000084313498860207800F00800082808D1F0
:1018D0000F48806820F46050216940EAC1000C493B
:1018E000886000F047F80A498968C1F30311094A82
:1018F000515C01F01F01C8400749086007480068B3
:10190000FFF78AFC0746384636E700000020024011
:1019100000100240408D0008C4000020BC000020E0
:101920000148006870470000C400002000B5FFF7C0
:10193000F7FF05498968C1F30221044A515C01F0AF
:101940001F01C84000BD000000100240508D00087B
:1019500000B5FFF7E5FF05498968C1F3C221044AD4
:10196000515C01F01F01C84000BD000000100240A2
:10197000508D0008F0B500230020DFF8D4C0DCF85B
:1019800008C00CF00C01DFF8C8C0DCF80CC00CF08B
:10199000030719B10C291ED1012F1CD1DFF8B0C0EB
:1019A000DCF800C00CF0080CBCF1000F06D1DFF829
:1019B000A0C0DCF894C0CCF3032305E0DFF890C0AE
:1019C000DCF800C0CCF30313DFF888C05CF82330E8
:1019D00041B9184606E0042901D11F4802E0082950
:1019E00000D11E480C2932D1DFF864C0DCF80CC0ED
:1019F0000CF00304012C09D0022C02D0032C04D1DA
:101A000001E0154A04E0154A02E000BF1A4600BF93
:101A100000BFDFF83CC0DCF80CC0CCF3021C0CF1BA
:101A20000106DFF82CC0DCF80CC0CCF3062C0CFB54
:101A300002FCBCFBF6F2DFF818C0DCF80CC0CCF3FB
:101A4000416C0CF1010C4FEA4C05B2FBF5F0F0BD16
:101A500000100240588D00080024F40000127A00A3
:101A60002DE9F843044614B90120BDE8F883F9488C
:101A7000806800F00C06F748C06800F00307207883
:101A800000F01000102877D11EB10C2E76D1012F56
:101A900074D1F048006800F0020018B1A06908B9DC
:101AA0000120E2E7EB48216A006800F0080020B15D
:101AB000E848006800F0F00005E0E648943000686F
:101AC00000F47060000981421FD9206A01F0A0F97A
:101AD00008B10120C9E700BFDE48006840F00800F7
:101AE000DC4908600846006820F0F000216A0843DD
:101AF000D849086000BF0846406820F47F40E1698B
:101B000040EA0120D34948601FE000BFD148006887
:101B100040F00800CF4908600846006820F0F00057
:101B2000216A0843CB49086000BF0846406820F49A
:101B30007F40E16940EA0120C64948602EB9206A29
:101B400001F066F908B101208FE7FFF713FFC149E3
:101B50008968C1F30311C04A515C01F01F01C840FC
:101B6000BE490860BE480068FFF756FB8046B8F1E2
:101B7000000F4ED0404678E74BE0FFE7A06980B306
:101B8000B448006840F00100B2490860FFF70EF861
:101B9000054606E0FFF70AF8401B022801D903209A
:101BA00063E7AC48006800F002000028F2D000BFF4
:101BB000A848006840F00800A64908600846006888
:101BC00020F0F000216A0843A249086000BF0846DF
:101BD000406820F47F40E16940EA01209D49486067
:101BE00017E0FFE79B48006820F001009949086072
:101BF000FEF7DCFF054606E0FEF7D8FF401B022893
:101C000001D9032031E79348006800F00200002862
:101C1000F2D1207800F0010000285CD0082E03D01B
:101C20000C2E0AD1032F08D18A48006800F4003036
:101C300088B3606878BB012017E700BF6068B0F523
:101C4000803F06D18348006840F4803081490860B5
:101C50001AE06068B0F5A02F0BD17E48006840F410
:101C600080207C4908600846006840F480300860A5
:101C70000AE07848006820F4803076490860084619
:101C8000006820F48020086000BF606890B1FEF713
:101C90008DFF054607E01EE0FEF788FF401B642825
:101CA00001D90320E1E66B48006800F40030002809
:101CB000F2D010E0FEF77AFF054606E0FEF776FF69
:101CC000401B642801D90320CFE66248006800F475
:101CD00000300028F2D1207800F00200022852D112
:101CE000042E03D00C2E14D1022F12D159480068B3
:101CF00000F4806018B1E06808B90120B5E65548E5
:101D0000406820F0F850217C40EA01605149486069
:101D100039E0E06800B34F48006840F480704D49F6
:101D20000860FEF743FF054606E0FEF73FFF401B55
:101D3000022801D9032098E64648006800F4806034
:101D40000028F2D04348406820F0F850217C40EA57
:101D500001604049486016E03E48006820F4807009
:101D60003C490860FEF722FF054606E0FEF71EFF2D
:101D7000401B022801D9032077E63648006800F4AA
:101D800080600028F2D1207800F00800082836D1C1
:101D90006069D0B12F489430006840F001002D49AF
:101DA000C1F89400FEF702FF054606E0FEF7FEFECE
:101DB000401B022801D9032057E6264894300068CA
:101DC00000F002000028F1D019E0224894300068A9
:101DD00020F001001F49C1F89400FEF7E7FE054618
:101DE00006E0FEF7E3FE401B022801D903203CE693
:101DF00018489430006800F002000028F1D12078E3
:101E000000F00400042872D14FF000091148806DE1
:101E100000F0805078B900BF0E48806D40F08050CF
:101E20000C4988650846806D00F08050009000BF26
:101E300000BF4FF001090B48006800F4807000BB40
:101E40000848006840F4807006490860FEF7AEFE5E
:101E5000054610E000100240408D0008C40000203C
:101E6000BC00002000700040FEF7A0FE401B0228CE
:101E700001D90320F9E5CA48006800F48070002801
:101E8000F2D000BFA068012808D1C648006840F021
:101E90000100C4499039C1F8900021E0A0680528EC
:101EA0000FD1C048006840F00400BE499039C1F825
:101EB00090000846D0F8900040F00100C1F8900072
:101EC0000EE0B848006820F00100B6499039C1F82A
:101ED00090000846D0F8900020F00400C1F890006F
:101EE00000BFA068A0B1FEF761FE054609E02EE044
:101EF000FEF75CFE401B41F28831884201D9032085
:101F0000B3E5A848006800F002000028F0D012E015
:101F1000FEF74CFE054608E0FEF748FE401B41F286
:101F20008831884201D903209FE59E48006800F06F
:101F300002000028F0D1B9F1010F07D1994890387B
:101F4000806D20F0805097499039886500BF2078D7
:101F500000F02000202838D1606AD8B191480830BC
:101F6000006840F001008F499039C1F89800FEF7F1
:101F70001DFE054606E0FEF719FE401B022801D9AA
:101F8000032072E587480830006800F0020000284E
:101F9000F1D01AE083480830006820F00100814940
:101FA0009039C1F89800FEF701FE054606E0FEF7FD
:101FB000FDFD401B022801D9032056E57948083071
:101FC000006800F002000028F1D1A06A00287DD04E
:101FD000A06A02287BD173489038C76807F00301D4
:101FE000E06A814225D107F07001206B401EB1EB01
:101FF000001F1ED107F4FE41606BB1EB002F18D11A
:1020000007F078413820005DB1EBC06F11D107F4C3
:10201000C001A08F0122C2EB5000B1EB405F08D19C
:1020200007F0C0614020005DC2EB5000B1EB406F93
:1020300066D00C2E62D05B489038006800F080605B
:1020400008B1012011E557489038006820F08070F1
:10205000544990390860FEF7A9FD054606E0FEF7F1
:10206000A5FD401B022801D90320FEE44D4890380D
:10207000006800F000700028F1D1D4E90B10401E78
:1020800041EA0011606B41EA0021A08F0122C2EBFE
:10209000500041EA40514020005DC2EB500041EA4F
:1020A00040613820005D41EAC0603E499039C9680E
:1020B0003D4A114008433B499039C86008460068D2
:1020C00040F0807008600846C06801E053E03DE0E1
:1020D00040F08070C860FEF769FD054606E0FEF737
:1020E00065FD401B022801D90320BEE42D4890382D
:1020F000006800F000700028F1D04FE00120B4E447
:1021000028489038006800F00070A0BB254890383F
:10211000006840F080702349903908600846C06824
:1021200040F08070C860FEF741FD054606E0FEF70E
:102130003DFD401B022801D9032096E41948903840
:10214000006800F000700028F1D027E00C2E23D0AA
:1021500014489038006820F0807012499039086067
:10216000FEF724FD054607E0FEF720FD401B022890
:1021700002D9032079E411E00A489038006800F0A1
:1021800000700028F0D107489038C068074908401F
:1021900004499039C86001E0012066E4002064E44D
:1021A00000700040901002408C809D01FCFFEEFE0C
:1021B00070B504462546681EB0F1807F01D301202A
:1021C0000FE0681E4FF0E02148610F214FF0FF3013
:1021D00001F0BEF900204FF0E0218861072008617E
:1021E000002070BD70477047704700002DE9F04730
:1021F00004462068C569206806682068876840F63C
:102200000F0005EA0009B9F1000F0CD105F020001C
:1022100048B106F0200030B1606E10B12046616E0A
:102220008847BDE8F087B9F1000F7DD007F00100C5
:1022300018B9BE4830400028F7D005F0010058B169
:1022400006F4807040B1012021680862D4F8800053
:1022500040F00100C4F8800005F0020058B107F01A
:10226000010040B1022021680862D4F8800040F0EB
:102270000400C4F8800005F0040058B107F0010024
:1022800040B1042021680862D4F8800040F00200C8
:10229000C4F8800005F0080070B106F0200010B905
:1022A00007F0010040B1082021680862D4F88000DE
:1022B00040F00800C4F8800005F4006060B106F04A
:1022C000806048B14FF4006021680862D4F8800053
:1022D00040F02000C4F88000D4F8800000284BD0E3
:1022E00005F0200038B106F0200020B1606E10B17A
:1022F0002046616E8847D4F880A02068806800F08E
:102300004000402802D00AF0280070B3204600F0B8
:10231000DAFE2068806800F04000402821D100BF2C
:1023200000BF2168083100E027E051E8001F21F0DC
:1023300040002168083141E80002002AF1D100BFC5
:10234000206F50B17A48216F8863206FFEF7FDFA45
:1023500090B1206F816B88470EE02046FFF744FF65
:102360000AE02046FFF740FF06E0FFE72046FFF7C0
:102370003BFF0020C4F8800053E7206E01286FD196
:1023800005F0100000286BD006F010000028FAD0ED
:102390001020216808622068806800F04000402812
:1023A0005FD1206F006840681FFA80F8B8F1000F15
:1023B00055D0B4F85800404551DDA4F85A80206F3C
:1023C0000068006800F02000E8BB00BF00BF216883
:1023D00051E8001F21F48070226842E800010029C2
:1023E000F5D100BF00BF00BF2168083151E8001FD0
:1023F00021F001002168083141E80002002AF3D1F0
:1024000000BF00BF00BF2168083151E8001F21F064
:1024100040002168083141E80002002AF3D100BFE2
:102420002020E0670020206600BF00BF216851E83F
:10243000001F21F01000226842E800010029F5D1B8
:1024400000BF206F00E001E0FEF752FAB4F8580038
:10245000B4F85A20801A81B22046FFF7C3FEE0E6A6
:102460003EE034F8580F6188401A1FFA80F86088FF
:10247000583CA0B3B8F1000F31D000BF00BF2168B5
:1024800051E8001F21F49070226842E80001002901
:10249000F5D100BF00BF00BF2168083151E8001F1F
:1024A00021F001002168083141E80002002AF3D13F
:1024B00000BF2020E06700202066606600BF00BFEC
:1024C000216851E8001F21F01000226842E8000155
:1024D0000029F5D100BF41462046FFF783FEA0E664
:1024E00005F4801050B107F4800038B14FF480102B
:1024F000216808622046FFF776FE92E605F080002C
:1025000040B106F0800028B1A06E10B12046A16E47
:10251000884786E605F0400030B106F0400018B16B
:10252000204600F002FE7CE600BF7AE620010004AF
:10253000AF30000810B504460CB9012010BDA069E9
:1025400000B100E000BFA06F28B9002084F874003B
:10255000204600F029F82420A0672068006820F0B9
:10256000010021680860204600F0F6FD012800D136
:10257000E4E7606A10B1204600F0E4FC206840689F
:1025800020F49040216848602068806820F02A008C
:10259000216888602068006840F0010021680860B8
:1025A000204600F04BFDC9E710B59CB0044614214D
:1025B00017A8FDF744FE542102A8FDF740FE21496B
:1025C000206888423BD10220029000200B9002A894
:1025D000FEF726FF08B1FEF7FBF800BF1A48806D32
:1025E00040F40030184988650846806D00F40030DA
:1025F000019000BF00BF00BF0846C06C40F0010062
:10260000C8640846C06C00F00100019000BF00BF24
:102610000C201790022018900020199003201A9087
:1026200007201B9017A94FF09040FEF7EDF900220C
:1026300003212620FEF750FE2620FEF739FE1CB0AF
:1026400010BD000000440040001002402DE9F84F8A
:1026500004460E4617469946A06F20285DD106B164
:1026600017B9012000F05BB800BF94F8740001288E
:1026700001D10220F6E7012084F8740000BF002099
:10268000503420632120A062FEF790FA8246278012
:102690006780503CA068B0F5805F04D1206910B914
:1026A0000025B04602E035464FF0000800BF00208C
:1026B00084F8740000BF1DE05346002280212046AC
:1026C000CDF8009000F0A5FE08B10320CAE745B997
:1026D000B8F80000C0F308002168088508F1020876
:1026E00003E02878216808856D1CB4F85200401E6C
:1026F000A4F85200B4F852000028DDD1534600225D
:1027000040212046CDF8009000F083FE08B1032060
:10271000A8E72020A0670020A4E70220A2E718BCB9
:10272000BDE8E08F704700BFFEE701688969C1F32B
:10273000400111B10021026891620168896901F0CC
:10274000010129B90168896941F0010102689161BB
:10275000704700002DE9F74F04460E460027206819
:10276000D0F818800025DDF8089008F01000102837
:1027700050D12168C8613FE0701C00283CD0FEF7B2
:1027800015FAA0EB0900B04200D8AEBB2068406843
:1027900000F4804A94F842B020688069C0F3C030E9
:1027A00070B1BAF5804F0BD0BBF1200F08D0206874
:1027B000406840F4804021684860FEF7F7F98146A0
:1027C00014E0FEF7F3F9A0EB090019280ED9606CAC
:1027D00040F020006064202084F84100002084F84C
:1027E000420000BF84F8400000BF012720688069D4
:1027F000C0F340100028E4D020688069C0F3401086
:1028000008B9002FB8D017B920202168C86145F059
:10281000040501272068D0F8188008F48070B0F50E
:10282000807F06D145F001054FF480702168C861B2
:10283000012708F48060B0F5806F06D145F00805E7
:102840004FF480602168C861012708F40070B0F57A
:10285000007F06D145F002054FF400702168C86181
:102860000127AFB12046FFF760FF206840680A49A2
:10287000084021684860606C28436064202084F828
:102880004100002084F8420000BF84F8400000BFEF
:10289000384600F003B8000000E800FE1EBCBDE8AA
:1028A000E08F00002DE9F8430446894615461E4690
:1028B000DDE908781948F2B2002349460090204625
:1028C00000F06CF842463946204600F0DDF810B1C1
:1028D0000120BDE8F883012E03D1E8B221688862A7
:1028E0000EE0C5F30720216888624246394620463B
:1028F00000F0CAF808B10120EBE7E8B2216888626D
:102900003B46002240212046CDF8008000F062F8CE
:1029100008B10120DDE70020DBE700000020008097
:102920002DE9F8430446894615461E46DDE9087838
:102930001948F2B2C30249460090204600F02EF832
:1029400042463946204600F09FF810B10120BDE80C
:10295000F883012E03D1E8B2216888620EE0C5F346
:1029600007202168886242463946204600F08CF8EC
:1029700008B10120EBE7E8B2216888623B460022FB
:1029800080212046CDF8008000F024F808B1012015
:10299000DDE70020DBE7000000200080F0B5059CAB
:1029A000C1F309064FF47F0707EA02473E431E437F
:1029B000264326F00045066876684FF4806707EAEC
:1029C000545767F0FC2747F4C047BE432E430768BF
:1029D0007E60F0BD2DE9F04104460E4617461D46C7
:1029E000DDF8188019E0681CB8B1FEF7DFF8A0EB3D
:1029F0000800A84200D885B9606C40F020006064EF
:102A0000202084F84100002084F8420000BF84F8B0
:102A1000400000BF0120BDE8F0812068806930409F
:102A2000B04201D1012000E00020B842DBD00020FC
:102A3000F1E770B504460D4616461DE032462946BC
:102A40002046FFF787FE08B1012070BDFEF7AEF803
:102A5000801BA84200D87DB9606C40F02000606403
:102A6000202084F84100002084F8420000BF84F850
:102A7000400000BF0120E8E720688069C0F34010F3
:102A80000028DBD00020E0E770B504460D4616466E
:102A90001FE0324629462046FFF75CFE08B10120C0
:102AA00070BD681CA8B1FEF781F8801BA84200D851
:102AB0007DB9606C40F020006064202084F8410003
:102AC000002084F8420000BF84F8400000BF0120CD
:102AD000E6E720688069C0F340000028D9D00020D4
:102AE000DEE7000010B50A480A49086000200871B6
:102AF0000021084841714161816101200549086256
:102B00000846FDF79BFE08B1FDF762FE10BD000010
:102B100000300240142B002000B587B0142102A819
:102B2000FDF78DFB00BF1748C06C40F00100154950
:102B3000C8640846C06C00F00100019000BF00BFEF
:102B400000BF0846C06C40F00200C8640846C06C74
:102B500000F00200019000BF00BF022002904FF47D
:102B6000881003900020049002A90748FDF74CFF4D
:102B7000002202210720FEF7AFFB0720FEF798FB9B
:102B800007B000BD001002400004004810B5124814
:102B900012490860124848600021104881600121F4
:102BA000C1600021016141618161C1610162FEF783
:102BB0006DF808B1FDF70CFE00210848FDF7FCFF99
:102BC00008B1FDF705FE00210448FEF72AF808B118
:102BD000FDF7FEFD10BD000000540040382B002022
:102BE000EC9C901010B512481249086012484860D9
:102BF0000021104881600121C16000210161416113
:102C00008161C1610162FEF741F808B1FDF7E0FDA5
:102C100000210848FDF7D0FF08B1FDF7D9FD0021DC
:102C20000448FDF7FEFF08B1FDF7D2FD10BD00001E
:102C3000005C00408C2B0020EC9C901010B50D48DF
:102C40000D4908604FF4E130486000210A48816076
:102C5000C16001610C21416100218161C16101629A
:102C60000020054948620846FFF764FC08B1FDF7FB
:102C7000AFFD10BD00440040E02B002000BFFEE788
:102C800000BFFEE7704700002DE9F04104460F4603
:102C900000255B48C06800F0030090B15848C06848
:102CA00000F003002168884209D1206838B15448F7
:102CB000C068C0F30210401C6168884233D001250F
:102CC00031E02068012804D0022809D003281AD155
:102CD0000DE04B48006800F0020000B9012514E047
:102CE0004748006800F4806000B901250DE04448C1
:102CF000006800F4003028B94148006800F48020E2
:102D000000B9012501E0012500BF00BF5DB9D4E98C
:102D10000010401E41EA00103949C96821F07301D2
:102D200008433749C860002D67D13548006820F056
:102D3000806033490860FDF739FF064606E0FDF77D
:102D400035FF801B022801D9032505E02C480068C7
:102D500000F000600028F2D100BFC5BB67B9A068D1
:102D60000002217B40EAC16025490969254A1140DA
:102D700008432349086120E0012F0FD1A068000219
:102D8000218A0122C2EB510140EA41501C490969E4
:102D90001D4A114008431A4908610EE0A06800026C
:102DA000217D0122C2EB510140EA416014490969C9
:102DB000164A11400843124908611148006840F062
:102DC00080600F490860FDF7F1FE064607E014E059
:102DD000FDF7ECFE801B022801D9032505E0084819
:102DE000006800F000600028F2D000BF2DB9044850
:102DF0000069A1690843024908612846BDE8F081DD
:102E000000100240FF80FF07FF809FFFFF80FFF957
:102E1000F8B5044600262348806D00F0805018B1B4
:102E2000FEF7F6FA054616E000BF1E48806D40F03A
:102E300080501C4988650846806D00F080500090E5
:102E400000BF00BFFEF7E4FA05461648806D20F08B
:102E5000805014498865B5F5007F07D1802C10D9C2
:102E6000A02C01D902260CE001260AE0802C01D911
:102E7000032606E0802C01D1022602E0702C00D14E
:102E800001260948006820F0070030430649086021
:102E90000846006800F00700B04201D00120F8BDEC
:102EA0000020FCE70010024000200240704710B5EF
:102EB000FEF796F910BD00B597B0442106A8FDF7BE
:102EC000BEF9142101A8FDF7BAF94FF40070FEF71E
:102ED00059FA08B1FDF77CFC1020069001200C90F7
:102EE00000200D9060200E90022010900121119181
:102EF0001291282113910721149102211591169105
:102F000006A8FEF7ADFD08B1FDF762FC0F200190A9
:102F1000032002900020039004900590042101A852
:102F2000FEF724FC08B1FDF753FC17B000BD00000C
:102F30000348006840F470000149086070470000D1
:102F400088ED00E090F8241001F0010139B101682A
:102F5000496821F40031826A11430268516090F897
:102F6000241001F00201022907D10168496821F407
:102F70008031C26A11430268516090F8241001F058
:102F80000401042907D10168496821F48021026BFA
:102F900011430268516090F8241001F008010829DB
:102FA00007D10168496821F40041426B114302686E
:102FB000516090F8241001F01001102907D1016828
:102FC000896821F48051826B11430268916090F806
:102FD000241001F02001202907D10168896821F41B
:102FE0000051C26B11430268916090F8241001F007
:102FF0004001402913D10168496821F48011026C15
:10300000114302685160016CB1F5801F07D101685E
:10301000496821F4C001426C11430268516090F884
:10302000241001F08001802907D10168496821F44A
:103030000021826C114302685160704738B5044624
:103040000020C4F88000FDF7B1FD05462068006847
:1030500000F0080008280CD16FF07E402B460022BB
:103060004FF400110090204600F0D3F908B103207E
:1030700038BD2068006800F0040004280CD16FF00F
:103080007E402B4600224FF480010090204600F045
:10309000C0F908B10320EBE72020A067E06700201B
:1030A000206600BF84F8740000BF00BFE0E770B581
:1030B0000546AC6A0020A4F85A00A4F85200204645
:1030C000FFF792F870BD00BF00BF026852E8002F02
:1030D00022F49071036843E80012002AF5D100BF82
:1030E00000BF00BF0268083252E8002F22F0010141
:1030F0000268083242E80013002BF3D100BF016ED2
:1031000001290CD100BF00BF026852E8002F22F055
:103110001001036843E80012002AF5D100BF202106
:10312000C167002101664166704710B5044600BFC3
:1031300000BF216851E8001F21F04000226842E8EA
:1031400000010029F5D100BF2020A0670020A06663
:103150002046FFF7E7FA10BD2DE9F84F044600209E
:103160000090A4492068884200D100E000BF216996
:10317000A068084361690843E16940EA010A2068E0
:1031800000689D49084040EA0A00216808602068FC
:10319000406820F44050E168084321684860D4F852
:1031A00018A094492068884202D0206A40EA0A0A9E
:1031B0002068806820F4306040EA0A002168886056
:1031C00000BF8E492068884216D18D48006800F003
:1031D000030030B1012808D0022804D0032808D108
:1031E00005E0012607E0022605E0042603E00826A4
:1031F00001E0102600BF39E082492068884216D1DC
:103200007F48006800F00C0030B1042808D008287E
:1032100004D00C2808D105E0002607E0022605E0CE
:10322000042603E0082601E0102600BF1EE07149D5
:103230002068884219D17248006800F4406048B1A3
:10324000B0F5806F0AD0B0F5006F05D0B0F5406FD3
:1032500008D105E0002607E0022605E0042603E089
:10326000082601E0102600BF00E0102600BF6149DB
:103270002068884245D136B1022E08D0042E08D0ED
:10328000082E0DD109E0FEF751FB05460CE05E4D1E
:103290000AE0FEF76FFB054606E04FF4004503E049
:1032A00000250120009000BF00BF002D0AD06068FB
:1032B00000EB4000A84203D860680003A84202D295
:1032C0000120009090E04FF48070A5FB0030D4F80E
:1032D00004C04FEA5C015F1840F100016246002320
:1032E0003846FCF771FF8146B9F5407F06D3B9F542
:1032F000801F03D22068C0F80C9075E00120009078
:1033000072E0E069B0F5004F3AD1092E17D2DFE83C
:1033100006F005090D160F1616161300FEF706FB2C
:10332000054610E0FEF714FB05460CE0364D0AE0BA
:10333000FEF720FB054606E04FF4004503E00025BC
:103340000120009000BF00BF8DB36800616800EBF2
:103350005100B0FBF1F9B9F1100F0ED3B9F5803F70
:103360000BD24FF6F07009EA000BC9F342004BEAAA
:10337000000B2068C0F80CB036E00120009033E06C
:10338000092E18D2DFE806F005090D170F171717D9
:103390001400FEF7CBFA054611E0FEF7D9FA054610
:1033A0000DE0194D0BE0FEF7E5FA054607E01BE0DE
:1033B0004FF4004503E000250120009000BF00BF4E
:1033C00095B1606805EB50006168B0FBF1F9B9F1A7
:1033D000100F07D3B9F5803F04D21FFA89F0216896
:1033E000C86001E00120009000206066A06600989F
:1033F00000F00CB800800040F369FFEF0038014096
:1034000088100240004400400024F40018BCBDE8CD
:10341000E08F2DE9F04104460D4617469846069E7A
:1034200067E0701C002864D0FDF7C0FBA0EB08002B
:10343000B04200D836BB00BF00BF216851E8001F72
:1034400021F4D070226842E800010029F5D100BFC4
:1034500000BF00BF2168083151E8001F21F00100C2
:103460002168083141E80002002AF3D100BF202082
:10347000A067E06700BF002084F8740000BF03204D
:10348000BDE8F0812068006800F0040080B3206887
:10349000C069C0F3C02058B34FF4006021680862CF
:1034A00000BF00BF216851E8001F21F4D0702268DE
:1034B00042E800010029F5D100BF00BF00BF21682C
:1034C000083151E8001F21F001002168083141E86E
:1034D0000002002AF3D100BF2020A067E067C4F8F3
:1034E000800000BF002084F8740000BF0320C7E7FD
:1034F000FFE72068C0692840A84201D1012000E010
:103500000020B8428DD00020BAE7000010B5024874
:10351000FEF76CFE10BD0000E02B002000BFFEE7B0
:103520000FB4054B10B503A9044A029800F004F942
:1035300010BC5DF814FB0000ED3E0008C800002040
:1035400002480068C0F30220704700000CED00E064
:1035500010B5002804DB0A07130E054A135406E0D1
:103560000A07140E034A00F00F031B1FD45410BDAA
:1035700000E400E018ED00E02DED020B019820F0D2
:10358000004001909DED000B02B0704702E008C8BA
:10359000121F08C1002AFAD170477047002001E0CD
:1035A00001C1121F002AFBD1704700002DE9FF5F07
:1035B00082B00021DDE90430020DDDF840B00343A4
:1035C00018D044F61050A2F2FF324243151411985D
:1035D00001281FD0A5EB0B00401C5FEA000A4FF04A
:1035E00000064E4FDFF83891B046504615D5CAF167
:1035F000000413E0119801244AA3012801D16FEAC5
:103600000B010298119AC0E90031C0E9024206B0EC
:1036100000F08EB8CBF10000DFE704460021404AFD
:10362000491842EB0450CDE9001012E0E00707D042
:1036300032463B4640464946FCF7BBFE804689463B
:1036400032463B4610461946FCF7B3FE06460F4687
:103650006410002CEAD1DDE90401DDE90023BAF1B0
:10366000000F06DAFCF7A5FE42464B46FCF7A1FE2A
:1036700005E0FCF713FF42464B46FCF70FFF0446FC
:103680000E460022284BFCF7B5FF03D84FF0FF3061
:10369000014607E00022254B20463146FCF7DAFDC3
:1036A000FDF764F8102409E0002C0ADB0A2200234D
:1036B000FCF78AFD039B30321A55641E50EA010262
:1036C000F2D1641C039AC4F111031444119A012A23
:1036D00003D0012208430DD10AE0084304D00020A2
:1036E0004FF0110B119072E7A3EB0B056D1E0DE06F
:1036F0005B4504DD4FF0000205F1010504E003DA4B
:103700004FF00002A5F10105002AECD002981199B2
:10371000C0E90231C0E9004579E70000000014402B
:103720000000F03F300000000000F0430000E03FE8
:1037300030BCBDE8C09F00002DE9FF4F95B09A4610
:10374000884606460025EEE1252877D10024274645
:10375000F94A0121039400E0044316F8013F203B9D
:1037600001FA03F01042F7D130782A2811D06FF017
:103770002F033078A0F13002092A16D8039A44F0BA
:10378000020402EB820203EB42021044761C039017
:10379000EFE758F8042B0392002A03DA504244F46E
:1037A0000054039044F00204761C30782E2816D181
:1037B00016F8010F44F004042A280DD06FF02F02F0
:1037C0003078A0F13003092B09D807EB870302EB0F
:1037D0004303C718761CF3E758F8047B761C30784F
:1037E0006C280FD006DC4C2817D068280DD06A282A
:1037F00014D104E0742810D07A280FD10DE044F4DD
:1038000000140AE044F4801401E044F44014727897
:10381000824202D104F58014761C761C307866282A
:103820000BD013DC582877D009DC002875D0452848
:10383000F6D04628F4D047281AD193E118E063283F
:1038400035D0642879D0652812D18BE1702873D0E7
:1038500008DC6728F1D069286FD06E280DD06F285A
:1038600006D1ACE073282CD0752874D0782853D0BA
:103870005246179990476D1C54E1C4F30250022838
:1038800009D003280DD0D8F8001004280DD00D6001
:1038900008F1040846E1D8F80010EA17C1E900521F
:1038A000F6E7D8F800100D80F2E70D70F0E718F891
:1038B000041B8DF8001000208DF80100EB4601205C
:1038C00003E058F804BB4FF0FF3061074FF00001F0
:1038D00002D40DE009F101018946B9420FDA8145B0
:1038E000F8DB1BF809100029F4D108E009F1010107
:1038F00089468142FADB1BF809100029F6D10398AA
:103900005346A0EB090721463846179A00F083FA80
:10391000284400EB090507E044E008E10DE01BF84E
:10392000010B524617999047B9F10109F7D2534656
:1039300021463846179AF2E039E00A21C4F30252D0
:103940004FF0000B0091022A06D058F8040BC11763
:10395000032A09D00AE023E008F1070020F007025B
:10396000F2E80201904605E000B2C117042A01D135
:1039700040B2C117002906DA0A460021404261EB35
:1039800002012D2202E0220504D52B228DF804200D
:10399000012203E0E20701D02022F7E7914657E039
:1039A0000A2100E010214FF0000B00910BE01021E4
:1039B0004FF0000B44F004040827009103E00820B6
:1039C0004FF0000B0090C4F30252022A05D058F8C1
:1039D000040B0021032A08D008E008F1070020F0BA
:1039E0000702F2E80201904603E080B2042A00D107
:1039F000C0B24FF0000922072AD53278702A07D0CA
:103A0000DDF800C08CF0100C5CEA0B0C05D00EE069
:103A100040228DF80420012208E050EA010306D07C
:103A200030238DF804308DF8052002229146009B4A
:103A300083F0080353EA0B030AD150EA010201D1D3
:103A4000620705D530228DF804204FF001097F1E52
:103A50003278582A04D039A20C920CAA02920BE0B8
:103A60003BA2F9E75B46009AFCF7AEFB0C9B9B5C24
:103A7000029A521E0292137050EA0102F2D1029889
:103A800004A9081A00F1200B600702D524F4803441
:103A900000E001275F4502DDA7EB0B0000E00020FE
:103AA00000EB0B01009003984944401A0390E00397
:103AB00006D453462146179A039800F0ACF9054402
:103AC000002706E001A85246C05D179990476D1C7B
:103AD0007F1C4F45F6DBE0030CD553462146179A71
:103AE000039800F098F9054404E0302052461799F5
:103AF00090476D1C0099481E00900029F5DC08E0F5
:103B00000298029952460078491C029117999047F1
:103B10006D1CBBF10001ABF1010BF1DC5BE100F0CE
:103B200068F90544761C307800287FF40DAE19B092
:103B3000284600F05BB9000009280100303132331B
:103B400034353637383961626364656600000000D9
:103B500030313233343536373839414243444546C3
:103B600000000000600700D4062708F1070020F0DD
:103B70000700F0E80223804603F0004C5FEA0C00E7
:103B800001D097A009E0200501D596A005E0E00747
:103B900001D095A001E0AFF24C001390307823F0F3
:103BA000004365280CD006DC452809D046281DD0E6
:103BB00047287FD13BE0662818D067287AD136E0C5
:103BC0000021112F01DB112000E0781CCDE900015C
:103BD00004A90CA8FFF7EAFCDDE90D010C9A4FF0EF
:103BE000000B07F10109109200914EE04FF00040E8
:103BF0000097CDE9011004A90CA8FFF7D7FCDDE977
:103C00000D020C9B0F994FF0000B91461093009200
:103C100011B9791C00EB0109B7EB090003D4C0F11D
:103C2000FF3B07F10109A9EB0700019042E0012FDA
:103C300000DA01270021112F01DD112000E03846B4
:103C4000CDE9000104A90CA8FFF7B0FCDDE90D01E6
:103C50000C9A00914FF0000BB946109221070FD437
:103C6000009A4A4503DA914601E0A9F10109B9F148
:103C7000010F05DD109AA9F10101515C3029F4D042
:103C8000B84202DA10F1040F03DA0121CDE9011084
:103C900010E0002803DC8344A9EB000102E0411C92
:103CA000494500DD8946A0EB0B00401C01904FF018
:103CB00000400290200705D40198484502DB4FF0F0
:103CC000FF30019000208DF84B0002980DF14B075A
:103CD000B0F1004F25D002200C902B200D900298BF
:103CE00000280CDA404202902D200D9007E00A21B6
:103CF0000298FCF797FC3031029007F8011D0C99EF
:103D0000481E0C900029F2DC02980028EFD1791EA1
:103D10000D980870307800F0200040F0450007F85A
:103D2000020D11A8C01BC01D02901398007800B1AD
:103D3000012000EB0901019801EBE07102980144B8
:103D40000398401A401E0390E00306D453462146D0
:103D5000179A039800F05FF805441398007818B19B
:103D60005246179990476D1CE00323D553462146D0
:103D7000179A039800F04FF805441BE0BBF1000FC1
:103D800007DB0098584504DD1098179910F80B00D0
:103D900001E0179930205246904701980BF1010B32
:103DA000401E05F10105019004D12E2052461799BD
:103DB00090476D1CB9F10001A9F10109DEDC05E0B5
:103DC00017F8010B5246179990476D1C0299481E2F
:103DD00002900029F4DC53462146179A03989EE688
:103DE0002D0000002B0000002000000030BCBDE8CA
:103DF000C08F2DE9F041044600251E461746880471
:103E000004D405E039462020B0476D1C641EF9D566
:103E10002846BDE8F0812DE9F041044600251E4604
:103E20009046C80301D5302700E02027880404D538
:103E300005E041463846B0476D1C641EF9D528465A
:103E4000BDE8F0812DE9F84F05460E46701E802131
:103E500091FBF0F000F0FF0B002000F035FC1D4856
:103E60000068401C70B10021022000F0F7FC1A49E4
:103E7000184A126851F822000123184906C900F0B7
:103E8000A5FD09E00021022000F0E8FC0123134811
:103E900006C813A000F09AFD002795F800800124C1
:103EA00011E004FB0BF000F0FF0915F824A001203D
:103EB00053464A4641460090384600F07BFC4F4648
:103EC000D046601CC4B2B442EBDB00F0DFFC00F073
:103ED00009B8000084000020A00000201800002085
:103EE0002E2E2E0018BCBDE8E08F000013B50C4646
:103EF0004FF6FF73012269460248FEF7A7FB0098C0
:103F00001CBD0000E02B002010B51DE0104800682B
:103F1000D0B100200E4908600E490F4800F022F889
:103F20000E48006801280ED00A49B1F9000000F0DF
:103F30005FFB044622460F21094800F071FB0F2168
:103F40000748FFF77FFF00E0E0E700BF10BD00007B
:103F50004000002038000020CC0400203400002065
:103F6000480000207CB505460C4606236A462821F9
:103F7000284600F01FFA06469DF8010020809DF8B3
:103F80000010207801EB002000B220809DF8030093
:103F900060809DF80210A07801EB002000B26080E4
:103FA0009DF80500A0809DF80410207901EB002009
:103FB00000B2A08030467CBDF8B506460C46012311
:103FC0006A461221304600F0F5F905465DB99DF8C4
:103FD000000064F38610009001236A4612213046E7
:103FE00000F0F9F905462846F8BD70B505460C46BF
:103FF000012322460F21284600F0DCF90646304610
:1040000070BD7FB506460C46012302AA0D2130463D
:1040100000F0D0F90546002D7DD19DF808002178EB
:1040200060F3000121709DF808004108207861F3D9
:10403000410020709DF808008108207861F382001B
:1040400020709DF80800C108207861F3C30020703B
:104050009DF808000109207861F3041020709DF894
:1040600008004109207861F3451020709DF8080090
:104070008109207861F3861020709DF80800C1093D
:10408000207861F3C7102070012301AA5E21304619
:1040900000F090F90546002D55D19DF80400617897
:1040A00060F3000161709DF804004108607861F3DD
:1040B000410060709DF804008108607861F382001F
:1040C00060709DF80400C108607861F3C3006070FF
:1040D0009DF804000109607861F3041060709DF898
:1040E00004004109607861F3451060709DF8040098
:1040F0008109607861F3861060709DF80400C10941
:10410000607861F3C710607001236A46132130465E
:1041100000F050F900E016E00546A5B99DF8000052
:104120000109A07861F30000A070012303AA1A21FD
:10413000304600F03FF905469DF80C00C109A07813
:1041400061F30000A070284604B070BD33B587B09D
:104150000546012305AA0D21284600F02BF9044647
:10416000F4BB9DF820009DF8141060F30001059148
:104170009DF8200041089DF8140061F3410005906E
:104180009DF8200081089DF8140061F382000590DD
:104190009DF82000C1089DF8140061F3C30005904C
:1041A0009DF8200001099DF8140061F304100590AA
:1041B0009DF8200041099DF8140061F34510059019
:1041C0009DF8200081099DF8140061F38610059088
:1041D0009DF82000C1099DF8140061F3C71000E0AC
:1041E00007E00590012305AA0D21284600F0F3F809
:1041F000044634B9012304AA5E21284600F0DAF807
:10420000044634B9012303AA5F21284600F0D2F8FE
:104210000446E4BB9DF821009DF8101060F30001F6
:1042200004919DF8210041089DF8100061F34100C0
:1042300004909DF8210081089DF8100061F3820030
:1042400004909DF82100C1089DF8100061F3C3009F
:1042500004909DF8210001099DF8100061F30410FD
:1042600004909DF8210041099DF8100061F345106C
:1042700004909DF8210081099DF8100061F38610DB
:1042800004909DF82100C1099DF8100000E009E0AC
:1042900061F3C7100490012304AA5E21284600F0B0
:1042A0009AF8044634B9012302AA1321284600F0E3
:1042B00081F804466CB99DF822009DF8081060F35F
:1042C00004110291012302AA1321284600F083F869
:1042D000044634B9012306AA1A21284600F06AF8D8
:1042E00004466CB99DF822009DF8181060F3C711C0
:1042F0000691012306AA1A21284600F06CF804460C
:10430000002C4CD1012301AA5821284600F052F874
:1043100004469DF82100C0F38000A0BB9DF8210059
:10432000C0F3001078BB9DF82100C0F3401050BBD3
:104330009DF82100C0F3801028BB9DF82100C0F338
:10434000C00000BB9DF82100C009E0B99DF80C0039
:10435000C0F38000B8B99DF80C00C0F3001090B90C
:104360009DF80C00C0F3401068B99DF80C00C0F334
:10437000801040B99DF80C00C0F3C00018B99DF83A
:104380000C00C00930B19DF8040020F0800080309E
:10439000019004E09DF8040020F08000019034B901
:1043A000012301AA5821284600F015F804462046AA
:1043B00009B030BD2DE9F04104460D4616461F46B2
:1043C0003B4632462946D4F804C0E068E0478046C0
:1043D0004046BDE8F0812DE9F04104460D46164601
:1043E0001F463B4632462946D4F800C0E068E04705
:1043F00080464046BDE8F081F8B506460C460123EC
:104400006A4610213046FFF7D5FF05465DB99DF895
:10441000000064F30710009001236A461021304623
:10442000FFF7D9FF05462846F8BDF8B506460C4605
:1044300001236A4610213046FFF7BCFF05465DB9EF
:104440009DF8000064F38300009001236A46102168
:104450003046FFF7C0FF05462846F8BD2DED028B1C
:1044600082B0FCF7C9FEFEF726FDFEF755FBFEF70E
:10447000B9FBFEF78BFBFEF735FBFEF7DFFB384899
:1044800038490860384848603848C86001213548D4
:10449000FFF792FD0A213348FFF7AEFF02213148B2
:1044A000FFF7C3FF00BF01A92E48FFF7AAFD9DF843
:1044B000040020F00100401C8DF8040029480199F7
:1044C000FFF744FE2A492748FFF74CFD29492548B4
:1044D000FFF78BFD00F008F90F212748FFF7B2FC2A
:1044E0003DE000F089FA2549086008460068B0B34D
:1044F00014E0FFF709FD1E48B0F9000000EE100AB5
:10450000B8EEC00A1E481F49096800EB810080ED23
:10451000000A1C480068401C1A49086019480068D5
:104520006428E6D3002411E0154800EB840090EDE8
:10453000000A10EE101A0846FCF730F841EC180B90
:1045400053EC182B10A0FEF7EBFF641C642CEBDB84
:104550000C480068642802D100200A490860C0E7BE
:10456000C1450008CC04002091450008382B0020EC
:1045700038000020300000204800002034000020D7
:10458000DC0400209400002025382E36660A000046
:10459000FEB504460D4616461F46084884420AD119
:1045A0004FF47A7001232A46D721CDE900670290A3
:1045B0002046FCF7CDFB0020FEBD0000382B00207C
:1045C000FEB504460D4616461F46084884420AD1E9
:1045D0004FF47A7001232A46D721CDE90067029073
:1045E0002046FCF789FC0020FEBD0000382B00208F
:1045F0000146C82904DA11F1C80F01DD7F2101E06D
:10460000C1F17F010A46CB1701EB93639B11A1EB2C
:104610008310002800DA4030122800DA1230704788
:1046200010B50B46591E05E04C1E50F8244040F8CA
:104630002140491E0029F7DC026010BDF0B5034699
:104640001446802B01DA402900DBF0BD012C1CD17F
:10465000CD1701EB5575ED1003EBC515194E755DC2
:104660000A46CE1701EB5676F610A1EBC6070126D7
:10467000BE403543EEB20846CD1701EB5575ED103F
:1046800003EBC5150F4F7E551AE0CD1701EB55759D
:10469000ED1003EBC5150B4E755D0A46CE1701EB09
:1046A0005676F610A1EBC6070126BE40B543084674
:1046B000CE1701EB5676F61003EBC616014FBD552B
:1046C00000BFC2E7CC00002010B504460CB90020A2
:1046D00000E0FF2002464FF480610248FBF7A8FD8E
:1046E00010BD0000CC00002010B500F0ACF8642034
:1046F000FCF75AF9002000F0B7F8202000F040F94C
:10470000002000F03DF9B02000F03AF9C82000F098
:1047100037F9002000F034F9102000F031F9402082
:1047200000F02EF9FF2000F08FF8A12000F028F90A
:10473000A62000F025F9A82000F022F93F2000F083
:104740001FF9A42000F01CF9D32000F019F9002073
:1047500000F016F9D52000F013F9F02000F010F960
:10476000D92000F00DF9222000F00AF9DA2000F03B
:1047700007F9122000F004F9DB2000F001F92020F5
:1047800000F0FEF88D2000F0FBF8142000F0F8F89F
:10479000012000F069F80020FFF796FF00F076F89E
:1047A00000200349088048800120087110BD0000E6
:1047B000000000202DE9FC4F04460D4616461F461A
:1047C000301B002801DB014600E041428946781B8E
:1047D000002801DB014600E041428A46B44201DA8A
:1047E000012001E04FF0FF300190BD4201DA0120CD
:1047F00001E04FF0FF300090A9EB0A08394630463F
:104800000B9AFFF71BFF15E0294620460B9AFFF78E
:1048100015FF4FEA480BCAF10000834504DDA8EB01
:104820000A0801982044C4B2CB4503DAC844009872
:104830002844C5B2B442E7D1BD42E5D100F000B88A
:104840001CBCBDE8E08F704770B50446812581200F
:1048500000F096F8204600F093F870BD014A1080F1
:10486000518070470000002070B5054625B1AF2487
:1048700001200549487103E0AE2400200249487137
:10488000204600F07DF870BD0000002010B5002427
:1048900013E004F1B001C8B200F072F8002000F09B
:1048A0006FF8102000F06CF80549802202FB04101C
:1048B000114600F079F8601CC4B2082CE9DB10BD89
:1048C000CC0000202DE9FF4106461F46202E01DBCB
:1048D0007E2E03DD002004B0BDE8F081274800886B
:1048E0009DF804100844802806DC244840889DF880
:1048F00005100844402801DD0020ECE7002430E0EA
:10490000A6F120009DF8051000FB0140029931F846
:104910001080002520E008FA05F000F4004058B1AE
:10492000164A92782244D1B2144A12782A44D0B25C
:104930003A46FFF783FE0EE00FB9012300E00023A3
:104940001A460E4B9B782344D9B20C4B1B782B4450
:10495000D8B2FFF773FE6D1C9DF80400A842DAD8A8
:10496000641C9DF80500A042CAD8044800889DF840
:1049700004100844014908803046ACE700000020DC
:1049800001B584B04FF0FF30012104AA0B46CDE9F8
:1049900000210290002278210248FCF7ADFA05B010
:1049A00000BD00008C2B00203EB504460D464FF0A4
:1049B000FF31A8B201234022CDE9004002917821C5
:1049C0000148FCF799FA3EBD8C2B00203FB5044608
:1049D0001D460CE020782B46DDE90112FFF772FF3F
:1049E0002178884202D0207804B030BD641C207841
:1049F0000028EFD12078F7E710B52DED108B8AB0A5
:104A00009FEDCE0BB0EE40BAF0EE60BA9FEDCB0B4F
:104A1000B0EE40CAF0EE60CA9FEDC80BB0EE40DACF
:104A2000F0EE60DA9FEDC50BB0EE40EAF0EE60EA22
:104A30009FEDC20BB0EE40FAF0EE60FA9FEDBF0BB7
:104A40008DED080B9FEDBD0B8DED060B9FEDBB0BA8
:104A50008DED040B9FEDB90B8DED020B9FEDB70BA8
:104A6000B0EE408AF0EE608A9FEDB40BB0EE409A53
:104A7000F0EE609A9FEDB10BB0EE40AAF0EE60AAA6
:104A8000002435E0FFF740FAAE49B1F90000FBF72A
:104A900074FD53EC1B2BCDE900019DED000B51EC97
:104AA000100BFBF7D7FB41EC1B0BA649B1F9020039
:104AB000FBF763FD53EC1C2BCDE900019DED000BD2
:104AC00051EC100BFBF7C6FB41EC1C0B9D49B1F9F7
:104AD0000400FBF752FD53EC1D2BCDE900019DEDC9
:104AE000000B51EC100BFBF7B5FB41EC1D0B641CEC
:104AF000052CC7DB002438E0FFF706FA9149B1F92D
:104B00000000FBF73AFD53EC1E2BCDE900019DEDB3
:104B1000000B51EC100BFBF79DFB41EC1E0B894980
:104B2000B1F90200FBF729FD53EC1F2BCDE9000181
:104B30009DED000B51EC100BFBF78CFB41EC1F0BB8
:104B40008049B1F90400FBF718FDCDE900019DEDA6
:104B5000080B53EC102B9DED000B51EC100BFBF7E9
:104B600079FBCDE90801601C84B2052CC4DB9FED04
:104B7000760B53EC102B51EC1E0BFBF78FFCCDE9A1
:104B800000019DED000BFEF7F7FCB0EE408AF0EE61
:104B9000608A9FED6D0B53EC102B51EC1F0BFBF754
:104BA0007DFCCDE900019DED000BFEF7E5FCB0EECC
:104BB000409AF0EE609A9FED640B53EC102B9DED44
:104BC000080B51EC100BFBF769FCCDE900019DEDE2
:104BD000000BFEF7D1FCB0EE40AAF0EE60AA9FED0C
:104BE0005A0B53EC102B51EC1B0BFBF757FCCDE988
:104BF00000019DED000BFEF7BFFC8DED060B9FED58
:104C0000520B53EC102B51EC1C0BFBF747FCCDE97E
:104C100000019DED000BFEF7AFFC8DED040B9FED49
:104C20004A0B53EC102B51EC1D0BFBF737FCCDE975
:104C300000019DED000BFEF79FFC8DED020B9FED3B
:104C4000440B53EC102B51EC180BFBF7D3FC73D235
:104C50009FED3F0B53EC102B51EC190BFBF7CAFCEB
:104C60006AD29FED3B0B53EC102B51EC1A0BFBF768
:104C7000C1FC61D29FED360B53EC102B51EC180B9D
:104C8000FBF7B8FC58D29FED320B53EC102B51ECD4
:104C9000190BFBF7AFFC4FD29FED2D0B53EC102BF4
:104CA00051EC1A0BFBF7A6FC46D29FED2B0B53ECF5
:104CB000102B9DED060B51EC100BFBF77AFB53EC20
:104CC000182BCDE900019DED000B51EC100BFBF70B
:104CD00079FC29D39FED200B53EC102B9DED040B99
:104CE00051EC100BFBF765FB53EC192BCDE90001E0
:104CF0009DED000B51EC100BFBF764FC14D39FED02
:104D0000160B53EC102B9DED020B51EC100BFBF727
:104D100050FB53EC1A2BCDE900019DED000B51EC3B
:104D2000100BFBF74FFC05D201200AB000F018B8B9
:104D300010BD01E00020F8E70020F6E700000000C9
:104D400000000000380000200000000000001440B7
:104D50000000000000006940295C8FC2F528F03F88
:104D6000BDEC088BBDEC08CBFFF7E2BF00000000F4
:104D70000000000000000000000000000000000033
:104D800000100010001000100010001000000010B3
:104D9000000000000028002800280000000000009B
:104DA000000000000000000000240024007C00241B
:104DB0000048007C00480048000000000038005413
:104DC0000050003800140054005400380010000057
:104DD000002000540058003000280054001400083F
:104DE00000000000001000280028001000340048D7
:104DF0000048003400000000001000100010000007
:104E0000000000000000000000000000000800108A
:104E100000200020002000200020002000100008BA
:104E20000020001000080008000800080008000822
:104E300000100020001000380010002800000000C2
:104E40000000000000000000000000000010001042
:104E5000007C0010001000000000000000000000B6
:104E60000000000000000000000000100010001012
:104E700000000000000000000000003800000000FA
:104E80000000000000000000000000000000000022
:104E900000000010000000000008000800100010D2
:104EA0000010001000200020000000000038004426
:104EB0000044005400440044004400380000000056
:104EC0000010003000500010001000100010001002
:104ED00000000000003800440044000400080010F6
:104EE0000020007C0000000000380044000400188E
:104EF000000400040044003800000000000800180E
:104F0000002800280048007C00080008000000007D
:104F1000007C004000400078000400040044003899
:104F200000000000003800440040007800440044C5
:104F30000044003800000000007C0004000800105D
:104F40000010002000200020000000000038004475
:104F500000440038004400440044003800000000D1
:104F60000038004400440044003C00040044003881
:104F70000000000000000000001000000000000021
:104F80000000001000000000000000000000001001
:104F900000000000000000100010001000000000E1
:104FA000000C003000400030000C00000000000049
:104FB000000000000000007C0000007C00000000F9
:104FC000000000000000000000600018000400184D
:104FD00000600000000000000038004400040008E9
:104FE0000010001000000010000000000038004415
:104FF000004C0054005C00400040003800000000FD
:1050000000100028002800280028007C00440044EC
:105010000000000000780044004400780044004490
:1050200000440078000000000038004400400040C8
:1050300000400040004400380000000000700048BC
:105040000044004400440044004800700000000098
:10505000007C00400040007C004000400040007C9C
:1050600000000000007C004000400078004000404C
:1050700000400040000000000038004400400040B4
:10508000005C00440044003800000000004400447C
:105090000044007C00440044004400440000000040
:1050A0000038001000100010001000100010003830
:1050B00000000000000400040004000400040004D8
:1050C0000044003800000000004400480050006028
:1050D000005000480048004400000000004000402C
:1050E00000400040004000400040007C0000000004
:1050F0000044006C006C0054004400440044004430
:105100000000000000440064006400540054004C9F
:10511000004C0044000000000038004400440044FB
:1051200000440044004400380000000000780044BF
:1051300000440044007800400040004000000000AF
:105140000038004400440044004400440054003847
:105150000004000000780044004400440078004847
:1051600000480044000000000038004400400030C7
:10517000000800040044003800000000007C00101B
:1051800000100010001000100010001000000000BF
:1051900000440044004400440044004400440038FB
:1051A00000000000004400440044002800280028BB
:1051B000001000100000000000440044005400549F
:1051C0000054006C00280028000000000044002863
:1051D00000280010001000280028004400000000F3
:1051E00000440044002800280010001000100010A7
:1051F00000000000007C00040008001000100020E7
:105200000040007C0000000000180010001000109A
:1052100000100010001000100010001800200020E6
:10522000001000100010001000080008000000002E
:1052300000300010001000100010001000100010CE
:10524000001000300010002800280044000000007A
:10525000000000000000000000000000000000004E
:105260000000000000000000000000FE0020001010
:10527000000000000000000000000000000000002E
:105280000000000000380044003C0044004C0034A2
:10529000000000000040004000580064004400444A
:1052A00000640058000000000000000000380044C6
:1052B00000400040004400380000000000040004EA
:1052C0000034004C00440044004C00340000000056
:1052D0000000000000380044007C0040004400381A
:1052E00000000000000C0010007C001000100010F6
:1052F0000010001000000000000000000034004C0E
:1053000000440044004C0034000400780040004099
:1053100000580064004400440044004400000000C1
:1053200000100000007000100010001000100010AD
:1053300000000000001000000070001000100010BD
:1053400000100010001000E0004000400048005035
:105350000060005000480044000000000070001091
:1053600000100010001000100010001000000000DD
:105370000000000000780054005400540054005411
:1053800000000000000000000058006400440044D9
:105390000044004400000000000000000038004409
:1053A00000440044004400380000000000000000F9
:1053B000005800640044004400640058004000406D
:1053C000000000000034004C00440044004C003455
:1053D0000004000400000000005800640040004089
:1053E00000400040000000000000000000380044C1
:1053F00000300008004400380000000000200020B9
:10540000007800200020002000200018000000008C
:10541000000000000044004400440044004C0034FC
:1054200000000000000000000044004400280028A4
:10543000002800100000000000000000005400548C
:105440000054006C0028002800000000000000004C
:105450000044002800100010002800440000000054
:105460000000000000440044002800280010001044
:105470000010006000000000007C00080010002008
:105480000040007C00000000001800100010001018
:105490000020002000100010001000180010001064
:1054A000001000100010001000100010001000107C
:1054B000003000100010001000080008001000105C
:1054C000001000300000000000000074004C0000DC
:1054D00000000000000000000000000000000000CC
:1054E00000000000000000000000000000000000BC
:1054F0000000000000000000000000000000000CA0
:10550000000C000C000C000C000C000C000C000C3B
:10551000000C000C0000000C000C0000000000005B
:105520000000001B001B001B001B001B00000000F4
:10553000000000000000000000000000000000006B
:105540000000000000008019801980198019C07FB8
:10555000C07F80190033C07FC07F00330033003329
:1055600000330000000000000000001E003F8075B6
:1055700080650074003C001E000780058065806522
:105580008075003F001E0004000400000000007051
:1055900000D840D8C0D880D900730006000C801B0A
:1055A000C036C066C046C006800300000000000090
:1055B0000000001E003F003300330033001E000CCB
:1055C000C03CC066806380618063C03E801C000078
:1055D000000000000000000C000C000C000C000C8F
:1055E00000000000000000000000000000000000BB
:1055F0000000000000000000800000010003000621
:1056000000060004000C000C000C000C000C000C48
:1056100000040006000600030001800000200010C6
:105620000018000C000C000400060006000600062E
:10563000000600060004000C000C001800100020FA
:105640000000000C002D003F001E00330000000091
:10565000000000000000000000000000000000004A
:1056600000000000000000000000000C000C000C16
:10567000000CC0FFC0FF000C000C000C000C000070
:10568000000000000000000000000000000000001A
:10569000000000000000000000000000000000000A
:1056A0000000000C000C00040004000800000000D2
:1056B0000000000000000000000000000000001ECC
:1056C000001E0000000000000000000000000000BC
:1056D00000000000000000000000000000000000CA
:1056E00000000000000000000000000C000C0000A2
:1056F0000000000000000003000300030006000695
:1057000000060006000C000C000C000C001800182D
:1057100000180000000000000000001E003F0033E1
:10572000806180618061806D806D80618061806159
:105730000033003F001E00000000000000000006D3
:10574000000E001E003600260006000600060006B9
:10575000000600060006000600060000000000002B
:105760000000001E003F80738061806180010003A3
:105770000006000C001800300060807F807F000071
:10578000000000000000001C003E006300630003F6
:10579000000E000E00038001800180618073003FD5
:1057A000001E00000000000000000006000E000EB9
:1057B000001E001E0016003600360066807F807FC7
:1057C0000006000600060000000000000000007F48
:1057D000007F006000600060006E007F80638001D9
:1057E000800180618073003F001E00000000000007
:1057F0000000001E003F803380610060006E007F6B
:1058000080738061806180618033003F001E0000F2
:10581000000000000000807F807F80010003000303
:1058200000060006000C000C000C00080018001810
:1058300000180000000000000000001E003F806310
:10584000806180610021001E003F80618061806175
:105850008061003F001E0000000000000000001EEC
:10586000003F00738061806180618073803F801D94
:10587000800180610073003F001E000000000000F6
:1058800000000000000000000000000C000C000000
:1058900000000000000000000000000C000C0000F0
:1058A00000000000000000000000000000000000F8
:1058B000000C000C00000000000000000000000CC4
:1058C000000C0004000400080000000000000000BC
:1058D00080008003000E003800600038000E800356
:1058E0008000000000000000000000000000000038
:1058F000000000000000807F807F00000000807FAB
:10590000807F000000000000000000000000000098
:10591000000000000000000000400070001C0007B4
:1059200080010007001C0070004000000000000023
:10593000000000000000001F803FC071C060C00078
:10594000C00180030007000E000C000C0000000CDA
:10595000000C0000000000000000001E003F80312D
:1059600080718063806F806D806D806F8067006064
:105970000032003E001C0000000000000000000E8D
:10598000000E001B001B001B001B80318031803F7C
:10599000803F8031C060C060C06000000000000037
:1059A0000000007C007E0063006300630063007EF3
:1059B000007E0063806180618063007F007E000064
:1059C000000000000000001E003F80318061006088
:1059D0000060006000600060006080618031003F16
:1059E000001E0000000000000000007C007F00633B
:1059F000806380618061806180618061806100631B
:105A00000063007E007C0000000000000000807F3A
:105A1000807F0060006000600060007F007F0060A9
:105A2000006000600060807F807F00000000000058
:105A30000000807F807F0060006000600060007F69
:105A4000007F006000600060006000600060000097
:105A5000000000000000001E003F803180610060F7
:105A60000060006080638063806180618031803F7E
:105A7000001E000000000000000080618061806165
:105A8000806180618061807F807F806180618061D2
:105A90008061806180610000000000000000003F24
:105AA000003F000C000C000C000C000C000C000C63
:105AB000000C000C000C003F003F00000000000044
:105AC000000080018001800180018001800180014F
:105AD00080018001806180618073003F001E0000B2
